{
  "_format": "hh-sol-artifact-1",
  "contractName": "DigitalCopy",
  "sourceName": "contracts/DigitalCopy.sol",
  "abi": [
    {
      "inputs": [
        {
          "internalType": "address",
          "name": "_users",
          "type": "address"
        }
      ],
      "stateMutability": "nonpayable",
      "type": "constructor"
    },
    {
      "anonymous": false,
      "inputs": [
        {
          "indexed": true,
          "internalType": "address",
          "name": "owner",
          "type": "address"
        },
        {
          "indexed": true,
          "internalType": "address",
          "name": "approved",
          "type": "address"
        },
        {
          "indexed": true,
          "internalType": "uint256",
          "name": "tokenId",
          "type": "uint256"
        }
      ],
      "name": "Approval",
      "type": "event"
    },
    {
      "anonymous": false,
      "inputs": [
        {
          "indexed": true,
          "internalType": "address",
          "name": "owner",
          "type": "address"
        },
        {
          "indexed": true,
          "internalType": "address",
          "name": "operator",
          "type": "address"
        },
        {
          "indexed": false,
          "internalType": "bool",
          "name": "approved",
          "type": "bool"
        }
      ],
      "name": "ApprovalForAll",
      "type": "event"
    },
    {
      "anonymous": false,
      "inputs": [
        {
          "indexed": true,
          "internalType": "uint256",
          "name": "digitalCopyID",
          "type": "uint256"
        }
      ],
      "name": "BurnedDigitalCopy",
      "type": "event"
    },
    {
      "anonymous": false,
      "inputs": [
        {
          "indexed": true,
          "internalType": "uint256",
          "name": "digitalCopyID",
          "type": "uint256"
        }
      ],
      "name": "MintedDigitalCopy",
      "type": "event"
    },
    {
      "anonymous": false,
      "inputs": [
        {
          "indexed": true,
          "internalType": "address",
          "name": "from",
          "type": "address"
        },
        {
          "indexed": true,
          "internalType": "address",
          "name": "to",
          "type": "address"
        },
        {
          "indexed": true,
          "internalType": "uint256",
          "name": "tokenId",
          "type": "uint256"
        }
      ],
      "name": "Transfer",
      "type": "event"
    },
    {
      "anonymous": false,
      "inputs": [
        {
          "indexed": true,
          "internalType": "address",
          "name": "seller",
          "type": "address"
        },
        {
          "indexed": true,
          "internalType": "address",
          "name": "buyer",
          "type": "address"
        },
        {
          "indexed": true,
          "internalType": "uint256",
          "name": "digitalCopyID",
          "type": "uint256"
        }
      ],
      "name": "TransferredDigitalCopy",
      "type": "event"
    },
    {
      "inputs": [
        {
          "internalType": "address",
          "name": "to",
          "type": "address"
        },
        {
          "internalType": "uint256",
          "name": "tokenId",
          "type": "uint256"
        }
      ],
      "name": "approve",
      "outputs": [],
      "stateMutability": "nonpayable",
      "type": "function"
    },
    {
      "inputs": [
        {
          "internalType": "address",
          "name": "owner",
          "type": "address"
        }
      ],
      "name": "balanceOf",
      "outputs": [
        {
          "internalType": "uint256",
          "name": "",
          "type": "uint256"
        }
      ],
      "stateMutability": "view",
      "type": "function"
    },
    {
      "inputs": [
        {
          "internalType": "uint256",
          "name": "_digitalCopyID",
          "type": "uint256"
        }
      ],
      "name": "burn",
      "outputs": [],
      "stateMutability": "nonpayable",
      "type": "function"
    },
    {
      "inputs": [
        {
          "internalType": "bool",
          "name": "_boolean",
          "type": "bool"
        }
      ],
      "name": "changeMintability",
      "outputs": [],
      "stateMutability": "nonpayable",
      "type": "function"
    },
    {
      "inputs": [
        {
          "internalType": "address",
          "name": "_address",
          "type": "address"
        }
      ],
      "name": "existingUser",
      "outputs": [
        {
          "internalType": "bool",
          "name": "",
          "type": "bool"
        }
      ],
      "stateMutability": "view",
      "type": "function"
    },
    {
      "inputs": [
        {
          "internalType": "uint256",
          "name": "tokenId",
          "type": "uint256"
        }
      ],
      "name": "getApproved",
      "outputs": [
        {
          "internalType": "address",
          "name": "",
          "type": "address"
        }
      ],
      "stateMutability": "view",
      "type": "function"
    },
    {
      "inputs": [
        {
          "internalType": "uint256",
          "name": "_digitalCopyID",
          "type": "uint256"
        }
      ],
      "name": "getOwner",
      "outputs": [
        {
          "internalType": "address",
          "name": "",
          "type": "address"
        }
      ],
      "stateMutability": "view",
      "type": "function"
    },
    {
      "inputs": [
        {
          "internalType": "address",
          "name": "owner",
          "type": "address"
        },
        {
          "internalType": "address",
          "name": "operator",
          "type": "address"
        }
      ],
      "name": "isApprovedForAll",
      "outputs": [
        {
          "internalType": "bool",
          "name": "",
          "type": "bool"
        }
      ],
      "stateMutability": "view",
      "type": "function"
    },
    {
      "inputs": [
        {
          "internalType": "uint256",
          "name": "_digitalCopyID",
          "type": "uint256"
        }
      ],
      "name": "isItemForSale",
      "outputs": [
        {
          "internalType": "bool",
          "name": "",
          "type": "bool"
        }
      ],
      "stateMutability": "view",
      "type": "function"
    },
    {
      "inputs": [
        {
          "internalType": "string",
          "name": "_name",
          "type": "string"
        },
        {
          "internalType": "string",
          "name": "_price",
          "type": "string"
        },
        {
          "internalType": "string",
          "name": "_category",
          "type": "string"
        },
        {
          "internalType": "string",
          "name": "_brand",
          "type": "string"
        },
        {
          "internalType": "string",
          "name": "_serialnumber",
          "type": "string"
        }
      ],
      "name": "mint",
      "outputs": [
        {
          "internalType": "uint256",
          "name": "mintedDigitalCopyID",
          "type": "uint256"
        }
      ],
      "stateMutability": "nonpayable",
      "type": "function"
    },
    {
      "inputs": [],
      "name": "name",
      "outputs": [
        {
          "internalType": "string",
          "name": "",
          "type": "string"
        }
      ],
      "stateMutability": "view",
      "type": "function"
    },
    {
      "inputs": [
        {
          "internalType": "uint256",
          "name": "tokenId",
          "type": "uint256"
        }
      ],
      "name": "ownerOf",
      "outputs": [
        {
          "internalType": "address",
          "name": "",
          "type": "address"
        }
      ],
      "stateMutability": "view",
      "type": "function"
    },
    {
      "inputs": [
        {
          "internalType": "uint256",
          "name": "_digitalCopyID",
          "type": "uint256"
        }
      ],
      "name": "putItemForSale",
      "outputs": [],
      "stateMutability": "nonpayable",
      "type": "function"
    },
    {
      "inputs": [
        {
          "internalType": "uint256",
          "name": "_digitalCopyID",
          "type": "uint256"
        }
      ],
      "name": "putItemNotForSale",
      "outputs": [],
      "stateMutability": "nonpayable",
      "type": "function"
    },
    {
      "inputs": [
        {
          "internalType": "uint256",
          "name": "_digitalCopyID",
          "type": "uint256"
        }
      ],
      "name": "retrieveInformationForDigitalCopy",
      "outputs": [
        {
          "components": [
            {
              "internalType": "string",
              "name": "name",
              "type": "string"
            },
            {
              "internalType": "string",
              "name": "price",
              "type": "string"
            },
            {
              "internalType": "address",
              "name": "owner",
              "type": "address"
            },
            {
              "internalType": "string",
              "name": "category",
              "type": "string"
            },
            {
              "internalType": "string",
              "name": "brand",
              "type": "string"
            },
            {
              "internalType": "string",
              "name": "serialNumber",
              "type": "string"
            },
            {
              "internalType": "uint256",
              "name": "time",
              "type": "uint256"
            },
            {
              "internalType": "uint256[]",
              "name": "timeHistory",
              "type": "uint256[]"
            },
            {
              "internalType": "string[]",
              "name": "priceHistory",
              "type": "string[]"
            },
            {
              "internalType": "address[]",
              "name": "ownerHistory",
              "type": "address[]"
            },
            {
              "internalType": "uint256",
              "name": "transfers",
              "type": "uint256"
            },
            {
              "internalType": "bool",
              "name": "forSale",
              "type": "bool"
            }
          ],
          "internalType": "struct DigitalCopy.digitalCopyInformationRetrival",
          "name": "",
          "type": "tuple"
        }
      ],
      "stateMutability": "view",
      "type": "function"
    },
    {
      "inputs": [
        {
          "internalType": "address",
          "name": "_address",
          "type": "address"
        }
      ],
      "name": "retriveOwnedItems",
      "outputs": [
        {
          "internalType": "uint256[]",
          "name": "",
          "type": "uint256[]"
        }
      ],
      "stateMutability": "view",
      "type": "function"
    },
    {
      "inputs": [
        {
          "internalType": "address",
          "name": "from",
          "type": "address"
        },
        {
          "internalType": "address",
          "name": "to",
          "type": "address"
        },
        {
          "internalType": "uint256",
          "name": "tokenId",
          "type": "uint256"
        }
      ],
      "name": "safeTransferFrom",
      "outputs": [],
      "stateMutability": "nonpayable",
      "type": "function"
    },
    {
      "inputs": [
        {
          "internalType": "address",
          "name": "from",
          "type": "address"
        },
        {
          "internalType": "address",
          "name": "to",
          "type": "address"
        },
        {
          "internalType": "uint256",
          "name": "tokenId",
          "type": "uint256"
        },
        {
          "internalType": "bytes",
          "name": "data",
          "type": "bytes"
        }
      ],
      "name": "safeTransferFrom",
      "outputs": [],
      "stateMutability": "nonpayable",
      "type": "function"
    },
    {
      "inputs": [
        {
          "internalType": "address",
          "name": "operator",
          "type": "address"
        },
        {
          "internalType": "bool",
          "name": "approved",
          "type": "bool"
        }
      ],
      "name": "setApprovalForAll",
      "outputs": [],
      "stateMutability": "nonpayable",
      "type": "function"
    },
    {
      "inputs": [
        {
          "internalType": "bytes4",
          "name": "interfaceId",
          "type": "bytes4"
        }
      ],
      "name": "supportsInterface",
      "outputs": [
        {
          "internalType": "bool",
          "name": "",
          "type": "bool"
        }
      ],
      "stateMutability": "view",
      "type": "function"
    },
    {
      "inputs": [],
      "name": "symbol",
      "outputs": [
        {
          "internalType": "string",
          "name": "",
          "type": "string"
        }
      ],
      "stateMutability": "view",
      "type": "function"
    },
    {
      "inputs": [
        {
          "internalType": "uint256",
          "name": "tokenId",
          "type": "uint256"
        }
      ],
      "name": "tokenURI",
      "outputs": [
        {
          "internalType": "string",
          "name": "",
          "type": "string"
        }
      ],
      "stateMutability": "view",
      "type": "function"
    },
    {
      "inputs": [
        {
          "internalType": "uint256",
          "name": "_digitalCopyID",
          "type": "uint256"
        },
        {
          "internalType": "address",
          "name": "_buyersAddress",
          "type": "address"
        },
        {
          "internalType": "string",
          "name": "_price",
          "type": "string"
        }
      ],
      "name": "transfer",
      "outputs": [],
      "stateMutability": "nonpayable",
      "type": "function"
    },
    {
      "inputs": [
        {
          "internalType": "address",
          "name": "from",
          "type": "address"
        },
        {
          "internalType": "address",
          "name": "to",
          "type": "address"
        },
        {
          "internalType": "uint256",
          "name": "tokenId",
          "type": "uint256"
        }
      ],
      "name": "transferFrom",
      "outputs": [],
      "stateMutability": "nonpayable",
      "type": "function"
    }
  ],
  "bytecode": "0x6080604052600680546001600160a01b031916735fbdb2315678afecb367f032d93f642f64180aa3179055600b805460ff191660011790553480156200004457600080fd5b506040516200312938038062003129833981016040819052620000679162000153565b6040518060400160405280601481526020017f4469676974616c436f7079417574656e7469736b0000000000000000000000008152506040518060400160405280600381526020016244434160e81b8152508160009081620000ca91906200022a565b506001620000d982826200022a565b50506006546001600160a01b0316331490506200012d5760405162461bcd60e51b815260206004820152600e60248201526d139bdd08185d5d1a1bdc9a5e995960921b604482015260640160405180910390fd5b600980546001600160a01b0319166001600160a01b0392909216919091179055620002f6565b6000602082840312156200016657600080fd5b81516001600160a01b03811681146200017e57600080fd5b9392505050565b634e487b7160e01b600052604160045260246000fd5b600181811c90821680620001b057607f821691505b602082108103620001d157634e487b7160e01b600052602260045260246000fd5b50919050565b601f8211156200022557600081815260208120601f850160051c81016020861015620002005750805b601f850160051c820191505b8181101562000221578281556001016200020c565b5050505b505050565b81516001600160401b0381111562000246576200024662000185565b6200025e816200025784546200019b565b84620001d7565b602080601f8311600181146200029657600084156200027d5750858301515b600019600386901b1c1916600185901b17855562000221565b600085815260208120601f198616915b82811015620002c757888601518255948401946001909101908401620002a6565b5085821015620002e65787850151600019600388901b60f8161c191681555b5050505050600190811b01905550565b612e2380620003066000396000f3fe608060405234801561001057600080fd5b50600436106101985760003560e01c80636352211e116100e3578063b88d4fde1161008c578063e474597011610066578063e47459701461037a578063e7846b661461038d578063e985e9c5146103b857600080fd5b8063b88d4fde14610341578063c41a360a14610354578063c87b56dd1461036757600080fd5b806395d89b41116100bd57806395d89b4114610313578063a22cb4651461031b578063a3d2065f1461032e57600080fd5b80636352211e146102cc57806370a08231146102df57806386833e911461030057600080fd5b80631dc4870c1161014557806342966c681161011f57806342966c6814610286578063462ec489146102995780634f41c77f146102b957600080fd5b80631dc4870c1461024057806323b872dd1461026057806342842e0e1461027357600080fd5b8063095ea7b311610176578063095ea7b31461020557806313f12e431461021a57806315752dde1461022d57600080fd5b806301ffc9a71461019d57806306fdde03146101c5578063081812fc146101da575b600080fd5b6101b06101ab366004612409565b6103f4565b60405190151581526020015b60405180910390f35b6101cd610491565b6040516101bc9190612476565b6101ed6101e8366004612489565b610523565b6040516001600160a01b0390911681526020016101bc565b6102186102133660046124b9565b61054a565b005b610218610228366004612489565b61069e565b61021861023b366004612489565b610710565b61025361024e366004612489565b610785565b6040516101bc91906125af565b61021861026e3660046126f4565b610ec6565b6102186102813660046126f4565b610f3d565b610218610294366004612489565b610f58565b6102ac6102a7366004612730565b6110b4565b6040516101bc919061274b565b6102186102c736600461279d565b61116d565b6101ed6102da366004612489565b6111cb565b6102f26102ed366004612730565b611230565b6040519081526020016101bc565b6102f261030e366004612803565b6112ca565b6101cd61154d565b6102186103293660046128f4565b61155c565b6101b061033c366004612730565b61156b565b61021861034f3660046129b7565b6115f3565b6101ed610362366004612489565b611671565b6101cd610375366004612489565b61167c565b610218610388366004612a33565b6116f0565b6101b061039b366004612489565b6000908152600860205260409020600b015460ff16151560011490565b6101b06103c6366004612a9e565b6001600160a01b03918216600090815260056020908152604080832093909416825291909152205460ff1690565b60006001600160e01b031982167f80ac58cd00000000000000000000000000000000000000000000000000000000148061045757506001600160e01b031982167f5b5e139f00000000000000000000000000000000000000000000000000000000145b8061048b57507f01ffc9a7000000000000000000000000000000000000000000000000000000006001600160e01b03198316145b92915050565b6060600080546104a090612ad1565b80601f01602080910402602001604051908101604052809291908181526020018280546104cc90612ad1565b80156105195780601f106104ee57610100808354040283529160200191610519565b820191906000526020600020905b8154815290600101906020018083116104fc57829003601f168201915b5050505050905090565b600061052e826119d4565b506000908152600460205260409020546001600160a01b031690565b6000610555826111cb565b9050806001600160a01b0316836001600160a01b0316036105e35760405162461bcd60e51b815260206004820152602160248201527f4552433732313a20617070726f76616c20746f2063757272656e74206f776e6560448201527f720000000000000000000000000000000000000000000000000000000000000060648201526084015b60405180910390fd5b336001600160a01b038216148061061d57506001600160a01b038116600090815260056020908152604080832033845290915290205460ff165b61068f5760405162461bcd60e51b815260206004820152603d60248201527f4552433732313a20617070726f76652063616c6c6572206973206e6f7420746f60448201527f6b656e206f776e6572206f7220617070726f76656420666f7220616c6c00000060648201526084016105da565b6106998383611a3b565b505050565b806106a8816111cb565b6001600160a01b0316336001600160a01b0316146106f45760405162461bcd60e51b81526020600482015260096024820152684e6f7420796f75727360b81b60448201526064016105da565b506000908152600860205260409020600b01805460ff19169055565b8061071a816111cb565b6001600160a01b0316336001600160a01b0316146107665760405162461bcd60e51b81526020600482015260096024820152684e6f7420796f75727360b81b60448201526064016105da565b506000908152600860205260409020600b01805460ff19166001179055565b6107f4604051806101800160405280606081526020016060815260200160006001600160a01b0316815260200160608152602001606081526020016060815260200160008152602001606081526020016060815260200160608152602001600081526020016000151581525090565b6107fd826119d4565b61081e826000908152600860205260409020600b015460ff16151560011490565b80610842575061082d82611671565b6001600160a01b0316336001600160a01b0316145b6108b45760405162461bcd60e51b815260206004820152602a60248201527f596f7520646f206e6f7420686176652061636365737320746f2074686973206960448201527f6e666f726d6174696f6e0000000000000000000000000000000000000000000060648201526084016105da565b6000828152600860205260408120600a0154908167ffffffffffffffff8111156108e0576108e061292b565b604051908082528060200260200182016040528015610909578160200160208202803683370190505b50905060008267ffffffffffffffff8111156109275761092761292b565b60405190808252806020026020018201604052801561095a57816020015b60608152602001906001900390816109455790505b50905060008367ffffffffffffffff8111156109785761097861292b565b6040519080825280602002602001820160405280156109a1578160200160208202803683370190505b50905060005b848114610b1457600087815260086020908152604080832084845260070190915290205484518590839081106109df576109df612b0b565b602090810291909101810191909152600088815260088083526040808320858452909101909252208054610a1290612ad1565b80601f0160208091040260200160405190810160405280929190818152602001828054610a3e90612ad1565b8015610a8b5780601f10610a6057610100808354040283529160200191610a8b565b820191906000526020600020905b815481529060010190602001808311610a6e57829003601f168201915b5050505050838281518110610aa257610aa2612b0b565b6020908102919091018101919091526000888152600882526040808220848352600901909252205482516001600160a01b0390911690839083908110610aea57610aea612b0b565b6001600160a01b039092166020928302919091019091015280610b0c81612b37565b9150506109a7565b50604080516101808101825260008881526008602052919091208054829190610b3c90612ad1565b80601f0160208091040260200160405190810160405280929190818152602001828054610b6890612ad1565b8015610bb55780601f10610b8a57610100808354040283529160200191610bb5565b820191906000526020600020905b815481529060010190602001808311610b9857829003601f168201915b50505050508152602001600860008981526020019081526020016000206001018054610be090612ad1565b80601f0160208091040260200160405190810160405280929190818152602001828054610c0c90612ad1565b8015610c595780601f10610c2e57610100808354040283529160200191610c59565b820191906000526020600020905b815481529060010190602001808311610c3c57829003601f168201915b5050509183525050600088815260086020818152604080842060028101546001600160a01b031683870152938c905291905260039091018054919092019190610ca190612ad1565b80601f0160208091040260200160405190810160405280929190818152602001828054610ccd90612ad1565b8015610d1a5780601f10610cef57610100808354040283529160200191610d1a565b820191906000526020600020905b815481529060010190602001808311610cfd57829003601f168201915b50505050508152602001600860008981526020019081526020016000206004018054610d4590612ad1565b80601f0160208091040260200160405190810160405280929190818152602001828054610d7190612ad1565b8015610dbe5780601f10610d9357610100808354040283529160200191610dbe565b820191906000526020600020905b815481529060010190602001808311610da157829003601f168201915b50505050508152602001600860008981526020019081526020016000206005018054610de990612ad1565b80601f0160208091040260200160405190810160405280929190818152602001828054610e1590612ad1565b8015610e625780601f10610e3757610100808354040283529160200191610e62565b820191906000526020600020905b815481529060010190602001808311610e4557829003601f168201915b505050918352505060008881526008602081815260408084206006810154838701529085019890985260608401969096526080830194909452600a86015460a0830152979097529152600b9091015460ff16151560c0909401939093525090919050565b610ed03382611aa9565b610f325760405162461bcd60e51b815260206004820152602d60248201527f4552433732313a2063616c6c6572206973206e6f7420746f6b656e206f776e6560448201526c1c881bdc88185c1c1c9bdd9959609a1b60648201526084016105da565b610699838383611b28565b610699838383604051806020016040528060008152506115f3565b80610f62816111cb565b6001600160a01b0316336001600160a01b031614610fae5760405162461bcd60e51b81526020600482015260096024820152684e6f7420796f75727360b81b60448201526064016105da565b610fb782611d21565b33600090815260076020526040812090805b825481101561100f5784838281548110610fe557610fe5612b0b565b906000526020600020015403610ffd5780915061100f565b8061100781612b37565b915050610fc9565b508154829061102090600190612b50565b8154811061103057611030612b0b565b906000526020600020015482828154811061104d5761104d612b0b565b90600052602060002001819055508180548061106b5761106b612b63565b60019003818190600052602060002001600090559055837f25fad63505da82802e9194c8e9655a2c22aaccac9e1c5a7bf7e7c6c1f78dfa7760405160405180910390a250505050565b6006546060906001600160a01b031633146111025760405162461bcd60e51b815260206004820152600e60248201526d139bdd08185d5d1a1bdc9a5e995960921b60448201526064016105da565b6001600160a01b0382166000908152600760209081526040918290208054835181840281018401909452808452909183018282801561116057602002820191906000526020600020905b81548152602001906001019080831161114c575b505050505090505b919050565b6006546001600160a01b031633146111b85760405162461bcd60e51b815260206004820152600e60248201526d139bdd08185d5d1a1bdc9a5e995960921b60448201526064016105da565b600b805460ff1916911515919091179055565b6000818152600260205260408120546001600160a01b03168061048b5760405162461bcd60e51b815260206004820152601860248201527f4552433732313a20696e76616c696420746f6b656e204944000000000000000060448201526064016105da565b60006001600160a01b0382166112ae5760405162461bcd60e51b815260206004820152602960248201527f4552433732313a2061646472657373207a65726f206973206e6f74206120766160448201527f6c6964206f776e6572000000000000000000000000000000000000000000000060648201526084016105da565b506001600160a01b031660009081526003602052604090205490565b6006546040517fccd72f730000000000000000000000000000000000000000000000000000000081523360048201526000916001600160a01b03169063ccd72f7390602401602060405180830381865afa15801561132c573d6000803e3d6000fd5b505050506040513d601f19601f820116820180604052508101906113509190612b79565b61138d5760405162461bcd60e51b815260206004820152600e60248201526d139bdd08185d5d1a1bdc9a5e995960921b60448201526064016105da565b600b5460ff166113df5760405162461bcd60e51b815260206004820152601160248201527f4974656d206e6f7420666f722073616c6500000000000000000000000000000060448201526064016105da565b600a80549060006113ef83612b37565b9190505590506113ff3382611db6565b6000818152600860205260409020806114198c8e83612be4565b50600181016114298a8c83612be4565b506002810180546001600160a01b031916331790556003810161144d888a83612be4565b506004810161145d868883612be4565b506005810161146d848683612be4565b504260068201819055600a8201805460009081526007840160209081526040808320949094559154815260088401909152206114aa8a8c83612be4565b50600a810180546000908152600983016020526040812080546001600160a01b03191633179055600b8301805460ff19166001179055815491906114ed83612b37565b909155505033600090815260076020908152604080832080546001810182559084529183209091018490555183917f4a5fd4291caa5a4440212ccfdad7027a5f8cf181f4003a75678e659be329a90291a2509a9950505050505050505050565b6060600180546104a090612ad1565b611567338383611dd0565b5050565b6009546040517fab7e7cf60000000000000000000000000000000000000000000000000000000081526001600160a01b038381166004830152600092169063ab7e7cf690602401602060405180830381865afa1580156115cf573d6000803e3d6000fd5b505050506040513d601f19601f8201168201806040525081019061048b9190612b79565b6115fd3383611aa9565b61165f5760405162461bcd60e51b815260206004820152602d60248201527f4552433732313a2063616c6c6572206973206e6f7420746f6b656e206f776e6560448201526c1c881bdc88185c1c1c9bdd9959609a1b60648201526084016105da565b61166b84848484611e9e565b50505050565b600061048b826111cb565b6060611687826119d4565b600061169e60408051602081019091526000815290565b905060008151116116be57604051806020016040528060008152506116e9565b806116c884611f1c565b6040516020016116d9929190612ca5565b6040516020818303038152906040525b9392505050565b82611712816000908152600860205260409020600b015460ff16151560011490565b61175e5760405162461bcd60e51b815260206004820152601160248201527f4974656d206e6f7420666f722073616c6500000000000000000000000000000060448201526064016105da565b611767846119d4565b6117708361156b565b6117e25760405162461bcd60e51b815260206004820152602760248201527f5468697320627579657220646f6573206e6f742068617665206120757365722060448201527f6163636f756e740000000000000000000000000000000000000000000000000060648201526084016105da565b6117ee33848685611e9e565b60008481526008602052604090206001810161180a8482612cd4565b506002810180546001600160a01b0319166001600160a01b0386161790554260068201819055600a8201805460009081526007840160209081526040808320949094559154815260088401909152206118638482612cd4565b50600a810180546000908152600983016020526040812080546001600160a01b031916331790558154919061189783612b37565b9091555050600b8101805460ff1916905533600090815260076020526040812090805b825481101561190057878382815481106118d6576118d6612b0b565b9060005260206000200154036118ee57809150611900565b806118f881612b37565b9150506118ba565b508154829061191190600190612b50565b8154811061192157611921612b0b565b906000526020600020015482828154811061193e5761193e612b0b565b90600052602060002001819055508180548061195c5761195c612b63565b6000828152602080822083016000199081018390559092019092556001600160a01b03881680835260078252604080842080546001810182559085529284209092018a90559051899233917f1680e2ced12663501317949835a3a398cce2c350caa99e0536893c95a1924fa79190a450505050505050565b6000818152600260205260409020546001600160a01b0316611a385760405162461bcd60e51b815260206004820152601860248201527f4552433732313a20696e76616c696420746f6b656e204944000000000000000060448201526064016105da565b50565b600081815260046020526040902080546001600160a01b0319166001600160a01b0384169081179091558190611a70826111cb565b6001600160a01b03167f8c5be1e5ebec7d5bd14f71427d1e84f3dd0314c0f7b2291e5b200ac8c7c3b92560405160405180910390a45050565b600080611ab5836111cb565b9050806001600160a01b0316846001600160a01b03161480611afc57506001600160a01b0380821660009081526005602090815260408083209388168352929052205460ff165b80611b205750836001600160a01b0316611b1584610523565b6001600160a01b0316145b949350505050565b826001600160a01b0316611b3b826111cb565b6001600160a01b031614611b9f5760405162461bcd60e51b815260206004820152602560248201527f4552433732313a207472616e736665722066726f6d20696e636f72726563742060448201526437bbb732b960d91b60648201526084016105da565b6001600160a01b038216611c1a5760405162461bcd60e51b8152602060048201526024808201527f4552433732313a207472616e7366657220746f20746865207a65726f2061646460448201527f726573730000000000000000000000000000000000000000000000000000000060648201526084016105da565b826001600160a01b0316611c2d826111cb565b6001600160a01b031614611c915760405162461bcd60e51b815260206004820152602560248201527f4552433732313a207472616e736665722066726f6d20696e636f72726563742060448201526437bbb732b960d91b60648201526084016105da565b600081815260046020908152604080832080546001600160a01b03199081169091556001600160a01b0387811680865260038552838620805460001901905590871680865283862080546001019055868652600290945282852080549092168417909155905184937fddf252ad1be2c89b69c2b068fc378daa952ba7f163c4a11628f55a4df523b3ef91a4505050565b6000611d2c826111cb565b9050611d37826111cb565b600083815260046020908152604080832080546001600160a01b03199081169091556001600160a01b0385168085526003845282852080546000190190558785526002909352818420805490911690555192935084927fddf252ad1be2c89b69c2b068fc378daa952ba7f163c4a11628f55a4df523b3ef908390a45050565b611567828260405180602001604052806000815250611fbc565b816001600160a01b0316836001600160a01b031603611e315760405162461bcd60e51b815260206004820152601960248201527f4552433732313a20617070726f766520746f2063616c6c65720000000000000060448201526064016105da565b6001600160a01b03838116600081815260056020908152604080832094871680845294825291829020805460ff191686151590811790915591519182527f17307eab39ab6107e8899845ad3d59bd9653f200f220920489ca2b5937696c31910160405180910390a3505050565b611ea9848484611b28565b611eb58484848461203a565b61166b5760405162461bcd60e51b815260206004820152603260248201527f4552433732313a207472616e7366657220746f206e6f6e20455243373231526560448201527131b2b4bb32b91034b6b83632b6b2b73a32b960711b60648201526084016105da565b60606000611f2983612186565b600101905060008167ffffffffffffffff811115611f4957611f4961292b565b6040519080825280601f01601f191660200182016040528015611f73576020820181803683370190505b5090508181016020015b600019017f3031323334353637383961626364656600000000000000000000000000000000600a86061a8153600a8504945084611f7d57509392505050565b611fc68383612268565b611fd3600084848461203a565b6106995760405162461bcd60e51b815260206004820152603260248201527f4552433732313a207472616e7366657220746f206e6f6e20455243373231526560448201527131b2b4bb32b91034b6b83632b6b2b73a32b960711b60648201526084016105da565b60006001600160a01b0384163b1561217b57604051630a85bd0160e11b81526001600160a01b0385169063150b7a029061207e903390899088908890600401612d94565b6020604051808303816000875af19250505080156120b9575060408051601f3d908101601f191682019092526120b691810190612dd0565b60015b612161573d8080156120e7576040519150601f19603f3d011682016040523d82523d6000602084013e6120ec565b606091505b5080516000036121595760405162461bcd60e51b815260206004820152603260248201527f4552433732313a207472616e7366657220746f206e6f6e20455243373231526560448201527131b2b4bb32b91034b6b83632b6b2b73a32b960711b60648201526084016105da565b805181602001fd5b6001600160e01b031916630a85bd0160e11b149050611b20565b506001949350505050565b6000807a184f03e93ff9f4daa797ed6e38ed64bf6a1f01000000000000000083106121cf577a184f03e93ff9f4daa797ed6e38ed64bf6a1f010000000000000000830492506040015b6d04ee2d6d415b85acef810000000083106121fb576d04ee2d6d415b85acef8100000000830492506020015b662386f26fc10000831061221957662386f26fc10000830492506010015b6305f5e1008310612231576305f5e100830492506008015b612710831061224557612710830492506004015b60648310612257576064830492506002015b600a831061048b5760010192915050565b6001600160a01b0382166122be5760405162461bcd60e51b815260206004820181905260248201527f4552433732313a206d696e7420746f20746865207a65726f206164647265737360448201526064016105da565b6000818152600260205260409020546001600160a01b0316156123235760405162461bcd60e51b815260206004820152601c60248201527f4552433732313a20746f6b656e20616c7265616479206d696e7465640000000060448201526064016105da565b6000818152600260205260409020546001600160a01b0316156123885760405162461bcd60e51b815260206004820152601c60248201527f4552433732313a20746f6b656e20616c7265616479206d696e7465640000000060448201526064016105da565b6001600160a01b038216600081815260036020908152604080832080546001019055848352600290915280822080546001600160a01b0319168417905551839291907fddf252ad1be2c89b69c2b068fc378daa952ba7f163c4a11628f55a4df523b3ef908290a45050565b6001600160e01b031981168114611a3857600080fd5b60006020828403121561241b57600080fd5b81356116e9816123f3565b60005b83811015612441578181015183820152602001612429565b50506000910152565b60008151808452612462816020860160208601612426565b601f01601f19169290920160200192915050565b6020815260006116e9602083018461244a565b60006020828403121561249b57600080fd5b5035919050565b80356001600160a01b038116811461116857600080fd5b600080604083850312156124cc57600080fd5b6124d5836124a2565b946020939093013593505050565b600081518084526020808501945080840160005b83811015612513578151875295820195908201906001016124f7565b509495945050505050565b600082825180855260208086019550808260051b84010181860160005b8481101561256957601f1986840301895261255783835161244a565b9884019892509083019060010161253b565b5090979650505050505050565b600081518084526020808501945080840160005b838110156125135781516001600160a01b03168752958201959082019060010161258a565b60208152600082516101808060208501526125ce6101a085018361244a565b91506020850151601f19808685030160408701526125ec848361244a565b93506040870151915061260a60608701836001600160a01b03169052565b6060870151915080868503016080870152612625848361244a565b935060808701519150808685030160a0870152612642848361244a565b935060a08701519150808685030160c087015261265f848361244a565b935060c087015160e087015260e0870151915061010081878603018188015261268885846124e3565b9450808801519250506101208187860301818801526126a7858461251e565b9450808801519250506101408187860301818801526126c68584612576565b90880151610160888101919091528801518015158589015290945091506126ea9050565b5090949350505050565b60008060006060848603121561270957600080fd5b612712846124a2565b9250612720602085016124a2565b9150604084013590509250925092565b60006020828403121561274257600080fd5b6116e9826124a2565b6020808252825182820181905260009190848201906040850190845b8181101561278357835183529284019291840191600101612767565b50909695505050505050565b8015158114611a3857600080fd5b6000602082840312156127af57600080fd5b81356116e98161278f565b60008083601f8401126127cc57600080fd5b50813567ffffffffffffffff8111156127e457600080fd5b6020830191508360208285010111156127fc57600080fd5b9250929050565b60008060008060008060008060008060a08b8d03121561282257600080fd5b8a3567ffffffffffffffff8082111561283a57600080fd5b6128468e838f016127ba565b909c509a5060208d013591508082111561285f57600080fd5b61286b8e838f016127ba565b909a50985060408d013591508082111561288457600080fd5b6128908e838f016127ba565b909850965060608d01359150808211156128a957600080fd5b6128b58e838f016127ba565b909650945060808d01359150808211156128ce57600080fd5b506128db8d828e016127ba565b915080935050809150509295989b9194979a5092959850565b6000806040838503121561290757600080fd5b612910836124a2565b915060208301356129208161278f565b809150509250929050565b634e487b7160e01b600052604160045260246000fd5b600067ffffffffffffffff8084111561295c5761295c61292b565b604051601f8501601f19908116603f011681019082821181831017156129845761298461292b565b8160405280935085815286868601111561299d57600080fd5b858560208301376000602087830101525050509392505050565b600080600080608085870312156129cd57600080fd5b6129d6856124a2565b93506129e4602086016124a2565b925060408501359150606085013567ffffffffffffffff811115612a0757600080fd5b8501601f81018713612a1857600080fd5b612a2787823560208401612941565b91505092959194509250565b600080600060608486031215612a4857600080fd5b83359250612a58602085016124a2565b9150604084013567ffffffffffffffff811115612a7457600080fd5b8401601f81018613612a8557600080fd5b612a9486823560208401612941565b9150509250925092565b60008060408385031215612ab157600080fd5b612aba836124a2565b9150612ac8602084016124a2565b90509250929050565b600181811c90821680612ae557607f821691505b602082108103612b0557634e487b7160e01b600052602260045260246000fd5b50919050565b634e487b7160e01b600052603260045260246000fd5b634e487b7160e01b600052601160045260246000fd5b600060018201612b4957612b49612b21565b5060010190565b8181038181111561048b5761048b612b21565b634e487b7160e01b600052603160045260246000fd5b600060208284031215612b8b57600080fd5b81516116e98161278f565b601f82111561069957600081815260208120601f850160051c81016020861015612bbd5750805b601f850160051c820191505b81811015612bdc57828155600101612bc9565b505050505050565b67ffffffffffffffff831115612bfc57612bfc61292b565b612c1083612c0a8354612ad1565b83612b96565b6000601f841160018114612c445760008515612c2c5750838201355b600019600387901b1c1916600186901b178355612c9e565b600083815260209020601f19861690835b82811015612c755786850135825560209485019460019092019101612c55565b5086821015612c925760001960f88860031b161c19848701351681555b505060018560011b0183555b5050505050565b60008351612cb7818460208801612426565b835190830190612ccb818360208801612426565b01949350505050565b815167ffffffffffffffff811115612cee57612cee61292b565b612d0281612cfc8454612ad1565b84612b96565b602080601f831160018114612d375760008415612d1f5750858301515b600019600386901b1c1916600185901b178555612bdc565b600085815260208120601f198616915b82811015612d6657888601518255948401946001909101908401612d47565b5085821015612d845787850151600019600388901b60f8161c191681555b5050505050600190811b01905550565b60006001600160a01b03808716835280861660208401525083604083015260806060830152612dc6608083018461244a565b9695505050505050565b600060208284031215612de257600080fd5b81516116e9816123f356fea2646970667358221220f488e695f62050aa24c6aab833ce70b0f63080e09aa673bf6c92c6af518bf7c264736f6c63430008110033",
  "linkReferences": {},
  "deployedLinkReferences": {}
}