{
  "_format": "hh-sol-artifact-1",
  "contractName": "Reviews",
  "sourceName": "contracts/Reviews.sol",
  "abi": [
    {
      "inputs": [],
      "stateMutability": "nonpayable",
      "type": "constructor"
    },
    {
      "anonymous": false,
      "inputs": [
        {
          "indexed": true,
          "internalType": "bytes32",
          "name": "transactionID",
          "type": "bytes32"
        }
      ],
      "name": "AddedReview",
      "type": "event"
    },
    {
      "inputs": [
        {
          "internalType": "address",
          "name": "_address",
          "type": "address"
        }
      ],
      "name": "getUserReviewSum",
      "outputs": [
        {
          "internalType": "uint256",
          "name": "",
          "type": "uint256"
        },
        {
          "internalType": "uint256",
          "name": "",
          "type": "uint256"
        }
      ],
      "stateMutability": "view",
      "type": "function"
    },
    {
      "inputs": [
        {
          "internalType": "address",
          "name": "_address",
          "type": "address"
        }
      ],
      "name": "getUserReviews",
      "outputs": [
        {
          "components": [
            {
              "internalType": "address",
              "name": "seller",
              "type": "address"
            },
            {
              "internalType": "address",
              "name": "buyer",
              "type": "address"
            },
            {
              "internalType": "uint8",
              "name": "rating",
              "type": "uint8"
            },
            {
              "internalType": "address",
              "name": "digitalCopy",
              "type": "address"
            },
            {
              "internalType": "uint256",
              "name": "digitalCopyID",
              "type": "uint256"
            },
            {
              "internalType": "bytes32",
              "name": "transactionID",
              "type": "bytes32"
            },
            {
              "internalType": "string",
              "name": "text",
              "type": "string"
            }
          ],
          "internalType": "struct Reviews.Review[]",
          "name": "",
          "type": "tuple[]"
        }
      ],
      "stateMutability": "view",
      "type": "function"
    },
    {
      "inputs": [
        {
          "internalType": "address",
          "name": "_seller",
          "type": "address"
        },
        {
          "internalType": "uint8",
          "name": "rating",
          "type": "uint8"
        },
        {
          "internalType": "address",
          "name": "_digitalCopy",
          "type": "address"
        },
        {
          "internalType": "uint256",
          "name": "_digitalCopyID",
          "type": "uint256"
        },
        {
          "internalType": "bytes32",
          "name": "_transactionID",
          "type": "bytes32"
        },
        {
          "internalType": "string",
          "name": "_text",
          "type": "string"
        }
      ],
      "name": "newReview",
      "outputs": [],
      "stateMutability": "nonpayable",
      "type": "function"
    }
  ],
  "bytecode": "0x608060405234801561001057600080fd5b50600280546001600160a01b03191633179055610aa2806100326000396000f3fe608060405234801561001057600080fd5b50600436106100415760003560e01c806318d0e8b21461004657806343b9e89a1461006f578063e11d390214610097575b600080fd5b61005961005436600461066b565b6100ac565b60405161006691906106d5565b60405180910390f35b61008261007d36600461066b565b610220565b60408051928352602083019190915201610066565b6100aa6100a53660046107a7565b61030a565b005b6002546060906001600160a01b031633146100c657600080fd5b6001600160a01b03821660009081526020818152604080832080548251818502810185019093528083529193909284015b828210156102155760008481526020908190206040805160e0810182526006860290920180546001600160a01b039081168452600182015480821695850195909552600160a01b90940460ff16918301919091526002810154909216606082015260038201546080820152600482015460a082015260058201805491929160c084019190610184906108a8565b80601f01602080910402602001604051908101604052809291908181526020018280546101b0906108a8565b80156101fd5780601f106101d2576101008083540402835291602001916101fd565b820191906000526020600020905b8154815290600101906020018083116101e057829003601f168201915b505050505081525050815260200190600101906100f7565b505050509050919050565b60025460009081906001600160a01b0316331461023c57600080fd5b6001600160a01b038316600090815260208190526040812054900361026657506000905080915091565b60008060005b6001600160a01b03861660009081526020819052604090205481146102ff576001600160a01b03861660009081526020819052604090208054829081106102b5576102b56108e2565b60009182526020909120600690910201600101546102dd90600160a01b900460ff168461090e565b9250816102e981610927565b92505080806102f790610927565b91505061026c565b509092509050915091565b6040517fc41a360a00000000000000000000000000000000000000000000000000000000815260048101849052849084906001600160a01b0383169063c41a360a90602401602060405180830381865afa15801561036c573d6000803e3d6000fd5b505050506040513d601f19601f820116820180604052508101906103909190610940565b6001600160a01b0316336001600160a01b03161461041b5760405162461bcd60e51b815260206004820152603360248201527f596f7520646f20617265206e6f74206175746f72697a656420746f20636f6d6d60448201527f656e74206f6e20746869732070726f647563740000000000000000000000000060648201526084015b60405180910390fd5b600084815260016020526040902054849060ff16156104a25760405162461bcd60e51b815260206004820152603360248201527f54686572652068617320616c7265616479206265656e2061207265766965772060448201527f6f662074686973207472616e73616374696f6e000000000000000000000000006064820152608401610412565b60068860ff161080156104b8575060008860ff16115b6105045760405162461bcd60e51b815260206004820152601260248201527f4e6f7420612076616c696420726174696e6700000000000000000000000000006044820152606401610412565b6040805160e0810182526001600160a01b03808c1680835233602080850191825260ff808f168688019081528e861660608801908152608088018f815260a089018f815260c08a018f815260009889528887529a8820805460018181018355918a52969098208a516006909702018054968a167fffffffffffffffffffffffff0000000000000000000000000000000000000000978816178155965197870180549451909516600160a01b027fffffffffffffffffffffff000000000000000000000000000000000000000000909416978916979097179290921790925590516002840180549190961692169190911790935591516003830155516004820155915190918291600582019061061990826109ac565b50506040518791507f31339475a8be639e571a053b511dfbd721a2312aeb730417a8c4ed40bdada1a990600090a250505050505050505050565b6001600160a01b038116811461066857600080fd5b50565b60006020828403121561067d57600080fd5b813561068881610653565b9392505050565b6000815180845260005b818110156106b557602081850181015186830182015201610699565b506000602082860101526020601f19601f83011685010191505092915050565b60006020808301818452808551808352604092508286019150828160051b87010184880160005b8381101561078357603f19898403018552815180516001600160a01b039081168552888201518116898601528782015160ff1688860152606080830151909116908501526080808201519085015260a0808201519085015260c09081015160e09185018290529061076f8186018361068f565b9689019694505050908601906001016106fc565b509098975050505050505050565b634e487b7160e01b600052604160045260246000fd5b60008060008060008060c087890312156107c057600080fd5b86356107cb81610653565b9550602087013560ff811681146107e157600080fd5b945060408701356107f181610653565b9350606087013592506080870135915060a087013567ffffffffffffffff8082111561081c57600080fd5b818901915089601f83011261083057600080fd5b81358181111561084257610842610791565b604051601f8201601f19908116603f0116810190838211818310171561086a5761086a610791565b816040528281528c602084870101111561088357600080fd5b8260208601602083013760006020848301015280955050505050509295509295509295565b600181811c908216806108bc57607f821691505b6020821081036108dc57634e487b7160e01b600052602260045260246000fd5b50919050565b634e487b7160e01b600052603260045260246000fd5b634e487b7160e01b600052601160045260246000fd5b80820180821115610921576109216108f8565b92915050565b600060018201610939576109396108f8565b5060010190565b60006020828403121561095257600080fd5b815161068881610653565b601f8211156109a757600081815260208120601f850160051c810160208610156109845750805b601f850160051c820191505b818110156109a357828155600101610990565b5050505b505050565b815167ffffffffffffffff8111156109c6576109c6610791565b6109da816109d484546108a8565b8461095d565b602080601f831160018114610a0f57600084156109f75750858301515b600019600386901b1c1916600185901b1785556109a3565b600085815260208120601f198616915b82811015610a3e57888601518255948401946001909101908401610a1f565b5085821015610a5c5787850151600019600388901b60f8161c191681555b5050505050600190811b0190555056fea264697066735822122052db45031f7d22464a1df9289df76f42d255002c089210c1d1f9104d98bebc0564736f6c63430008110033",
  "linkReferences": {},
  "deployedLinkReferences": {}
}