{
  "_format": "hh-sol-artifact-1",
  "contractName": "SystemManager",
  "sourceName": "contracts/SystemManager.sol",
  "abi": [
    {
      "inputs": [],
      "stateMutability": "nonpayable",
      "type": "constructor"
    },
    {
      "anonymous": false,
      "inputs": [
        {
          "indexed": true,
          "internalType": "address",
          "name": "addedAddress",
          "type": "address"
        }
      ],
      "name": "AddedTrustedSeller",
      "type": "event"
    },
    {
      "anonymous": false,
      "inputs": [
        {
          "indexed": true,
          "internalType": "address",
          "name": "contractAddress",
          "type": "address"
        }
      ],
      "name": "DeployedDigitalCopyContract",
      "type": "event"
    },
    {
      "anonymous": false,
      "inputs": [
        {
          "indexed": true,
          "internalType": "address",
          "name": "contractAddress",
          "type": "address"
        }
      ],
      "name": "DeployedReviewsContract",
      "type": "event"
    },
    {
      "anonymous": false,
      "inputs": [
        {
          "indexed": true,
          "internalType": "address",
          "name": "contractAddress",
          "type": "address"
        }
      ],
      "name": "DeployedUsersContract",
      "type": "event"
    },
    {
      "anonymous": false,
      "inputs": [
        {
          "indexed": true,
          "internalType": "address",
          "name": "removedAddress",
          "type": "address"
        }
      ],
      "name": "RemovedTrustedSeller",
      "type": "event"
    },
    {
      "anonymous": false,
      "inputs": [
        {
          "indexed": true,
          "internalType": "address",
          "name": "contractAddress",
          "type": "address"
        },
        {
          "indexed": true,
          "internalType": "bool",
          "name": "mintability",
          "type": "bool"
        }
      ],
      "name": "StatusMintable",
      "type": "event"
    },
    {
      "inputs": [
        {
          "internalType": "address",
          "name": "_address",
          "type": "address"
        }
      ],
      "name": "add",
      "outputs": [],
      "stateMutability": "nonpayable",
      "type": "function"
    },
    {
      "inputs": [
        {
          "internalType": "address",
          "name": "_address",
          "type": "address"
        }
      ],
      "name": "checkSystemManagerMapping",
      "outputs": [
        {
          "internalType": "bool",
          "name": "",
          "type": "bool"
        }
      ],
      "stateMutability": "view",
      "type": "function"
    },
    {
      "inputs": [],
      "name": "deployDigitalCopy",
      "outputs": [],
      "stateMutability": "nonpayable",
      "type": "function"
    },
    {
      "inputs": [
        {
          "internalType": "address",
          "name": "_address",
          "type": "address"
        }
      ],
      "name": "digitalCopyAddressExist",
      "outputs": [
        {
          "internalType": "bool",
          "name": "",
          "type": "bool"
        }
      ],
      "stateMutability": "view",
      "type": "function"
    },
    {
      "inputs": [
        {
          "internalType": "address",
          "name": "_address",
          "type": "address"
        }
      ],
      "name": "remove",
      "outputs": [],
      "stateMutability": "nonpayable",
      "type": "function"
    },
    {
      "inputs": [
        {
          "internalType": "address",
          "name": "_address",
          "type": "address"
        }
      ],
      "name": "retrieveAllOwnedItems",
      "outputs": [
        {
          "internalType": "uint256[][]",
          "name": "",
          "type": "uint256[][]"
        }
      ],
      "stateMutability": "view",
      "type": "function"
    },
    {
      "inputs": [
        {
          "internalType": "address",
          "name": "_address",
          "type": "address"
        },
        {
          "internalType": "uint256",
          "name": "_digitalCopyID",
          "type": "uint256"
        }
      ],
      "name": "retrieveListingInformation",
      "outputs": [
        {
          "components": [
            {
              "internalType": "string",
              "name": "name",
              "type": "string"
            },
            {
              "internalType": "string",
              "name": "price",
              "type": "string"
            },
            {
              "internalType": "address",
              "name": "owner",
              "type": "address"
            },
            {
              "internalType": "string",
              "name": "category",
              "type": "string"
            },
            {
              "internalType": "string",
              "name": "brand",
              "type": "string"
            },
            {
              "internalType": "string",
              "name": "serialNumber",
              "type": "string"
            },
            {
              "internalType": "uint256",
              "name": "time",
              "type": "uint256"
            },
            {
              "internalType": "uint256[]",
              "name": "timeHistory",
              "type": "uint256[]"
            },
            {
              "internalType": "string[]",
              "name": "priceHistory",
              "type": "string[]"
            },
            {
              "internalType": "address[]",
              "name": "ownerHistory",
              "type": "address[]"
            },
            {
              "internalType": "uint256",
              "name": "transfers",
              "type": "uint256"
            }
          ],
          "internalType": "struct DigitalCopy.digitalCopyInformationRetrival",
          "name": "",
          "type": "tuple"
        },
        {
          "internalType": "uint256",
          "name": "",
          "type": "uint256"
        },
        {
          "internalType": "uint256",
          "name": "",
          "type": "uint256"
        }
      ],
      "stateMutability": "view",
      "type": "function"
    },
    {
      "inputs": [],
      "name": "showDigitalCopies",
      "outputs": [
        {
          "internalType": "address[]",
          "name": "",
          "type": "address[]"
        }
      ],
      "stateMutability": "view",
      "type": "function"
    },
    {
      "inputs": [
        {
          "internalType": "address",
          "name": "_address",
          "type": "address"
        },
        {
          "internalType": "bool",
          "name": "_status",
          "type": "bool"
        }
      ],
      "name": "statusMintable",
      "outputs": [],
      "stateMutability": "nonpayable",
      "type": "function"
    }
  ],
  "bytecode": "0x60806040523480156200001157600080fd5b50600380546001600160a01b031916331790556040516200003290620001fc565b604051809103906000f0801580156200004f573d6000803e3d6000fd5b50600480546001600160a01b0319166001600160a01b039290921691821790556040517faaa27363a2fb5d5a58d05169ccff30f7ce14c665b76a390716d2b26a9e84706290600090a2620000d460405180606001604052806025815260200162005aee602591396004546001600160a01b03166200018a602090811b62000d0017901c565b604051620000e2906200020a565b604051809103906000f080158015620000ff573d6000803e3d6000fd5b50600580546001600160a01b0319166001600160a01b039290921691821790556040517f39cfe2d8a6625166170a4df98b00a1b2279259cbbce0d868a5490ff2388bb0f290600090a26200018460405180606001604052806026815260200162005ac8602691396005546001600160a01b03166200018a602090811b62000d0017901c565b6200027a565b620001d78282604051602401620001a392919062000218565b60408051601f198184030181529190526020810180516001600160e01b0390811663319af33360e01b17909152620001db16565b5050565b80516a636f6e736f6c652e6c6f67602083016000808483855afa5050505050565b61053c8062004ab883390190565b610ad48062004ff483390190565b604081526000835180604084015260005b8181101562000248576020818701810151606086840101520162000229565b50600060608285018101919091526001600160a01b03949094166020840152601f01601f191690910190910192915050565b61482e806200028a6000396000f3fe60806040523480156200001157600080fd5b5060043610620000b05760003560e01c80634cf1c37a116200007f57806364dff7d4116200006257806364dff7d41462000150578063c42d1c051462000178578063ccd72f73146200019e57600080fd5b80634cf1c37a146200011e57806362f79a4c146200012857600080fd5b8063013e6d3f14620000b55780630a3b0a4f14620000d757806329092d0e14620000f057806332b1c0e91462000107575b600080fd5b620000bf620001cd565b604051620000ce919062000daa565b60405180910390f35b620000ee620000e836600462000e0f565b62000307565b005b620000ee6200010136600462000e0f565b620003a0565b620000ee6200011836600462000e36565b62000436565b620000ee6200058e565b6200013f6200013936600462000e0f565b620006db565b6040519015158152602001620000ce565b620001676200016136600462000e78565b62000794565b604051620000ce9392919062000fcf565b6200018f6200018936600462000e0f565b62000a19565b604051620000ce919062001117565b6200013f620001af36600462000e0f565b6001600160a01b031660009081526020819052604090205460ff1690565b6060600060025411620002335760405162461bcd60e51b815260206004820152602360248201527f546865726520617265206e6f204469676974616c20436f707920436f6e74726160448201526263747360e81b60648201526084015b60405180910390fd5b600060025467ffffffffffffffff8111156200025357620002536200117d565b6040519080825280602002602001820160405280156200027d578160200160208202803683370190505b50905060005b60025481146200030157600160006200029d8383620011a9565b815260200190815260200160002060009054906101000a90046001600160a01b0316828281518110620002d457620002d4620011c5565b6001600160a01b039092166020928302919091019091015280620002f881620011db565b91505062000283565b50905090565b6003546001600160a01b03163314620003545760405162461bcd60e51b815260206004820152600e60248201526d139bdd08185d5d1a1bdc9a5e995960921b60448201526064016200022a565b6001600160a01b038116600081815260208190526040808220805460ff19166001179055517f527de0e82442fbd8f640d7e053850009c24a09395c0fb549cbf71737a7377e0d9190a250565b6003546001600160a01b03163314620003ed5760405162461bcd60e51b815260206004820152600e60248201526d139bdd08185d5d1a1bdc9a5e995960921b60448201526064016200022a565b6001600160a01b038116600081815260208190526040808220805460ff19169055517f2373f6331067fb4df2350dc44bc77bbe3f1d5026e559e021915a3bec67837df49190a250565b6003546001600160a01b03163314620004835760405162461bcd60e51b815260206004820152600e60248201526d139bdd08185d5d1a1bdc9a5e995960921b60448201526064016200022a565b6200048e82620006db565b620004dc5760405162461bcd60e51b815260206004820152601f60248201527f54686973206973206e6f7420612076616c6964204469676974616c436f70790060448201526064016200022a565b6040517f4f41c77f00000000000000000000000000000000000000000000000000000000815281151560048201526001600160a01b03831690634f41c77f90602401600060405180830381600087803b1580156200053957600080fd5b505af11580156200054e573d6000803e3d6000fd5b505060405183151592506001600160a01b03851691507f2d0a9750c29dd88082416b0dd8699b7f70a34b2778028aa742312fcd982be37390600090a35050565b6003546001600160a01b03163314620005db5760405162461bcd60e51b815260206004820152600e60248201526d139bdd08185d5d1a1bdc9a5e995960921b60448201526064016200022a565b6004546040516000916001600160a01b031690620005f99062000d9c565b6001600160a01b039091168152602001604051809103906000f08015801562000626573d6000803e3d6000fd5b5060028054600090815260016020526040812080547fffffffffffffffffffffffff0000000000000000000000000000000000000000166001600160a01b03851617905581549293506200067a83620011db565b90915550506040516001600160a01b038216907f5fe7551fcb0230aa56cfb4f55c56c52c5e3f5b2ea5c9298adbb08ab61f3d69b190600090a2620006d86040518060600160405280602c8152602001620047cd602c91398262000d00565b50565b600080600254116200073c5760405162461bcd60e51b815260206004820152602360248201527f546865726520617265206e6f204469676974616c20436f707920436f6e74726160448201526263747360e81b60648201526084016200022a565b60005b600254811462000789576000818152600160205260409020546001600160a01b03808516911603620007745750600192915050565b806200078081620011db565b9150506200073f565b50600090505b919050565b620007fb604051806101600160405280606081526020016060815260200160006001600160a01b0316815260200160608152602001606081526020016060815260200160008152602001606081526020016060815260200160608152602001600081525090565b6040517fc41a360a00000000000000000000000000000000000000000000000000000000815260048101839052600090819033906001600160a01b0387169063c41a360a90602401602060405180830381865afa15801562000861573d6000803e3d6000fd5b505050506040513d601f19601f8201168201806040525081019062000887919062001204565b6001600160a01b031614620009055760405162461bcd60e51b815260206004820152602a60248201527f596f7520646f206e6f7420686176652061636365737320746f2074686973206960448201527f6e666f726d6174696f6e0000000000000000000000000000000000000000000060648201526084016200022a565b6000806000876001600160a01b0316631dc4870c886040518263ffffffff1660e01b81526004016200093991815260200190565b600060405180830381865afa15801562000957573d6000803e3d6000fd5b505050506040513d6000823e601f3d908101601f191682016040526200098191908101906200148b565b6005546040517f43b9e89a0000000000000000000000000000000000000000000000000000000081523360048201529192506001600160a01b0316906343b9e89a906024016040805180830381865afa158015620009e3573d6000803e3d6000fd5b505050506040513d601f19601f8201168201806040525081019062000a09919062001642565b9196509450925050509250925092565b606060006002541162000a7b5760405162461bcd60e51b815260206004820152602360248201527f546865726520617265206e6f204469676974616c20436f707920436f6e74726160448201526263747360e81b60648201526084016200022a565b6001600160a01b038216331462000afb5760405162461bcd60e51b815260206004820152602860248201527f4f6e6c79206f776e65722063616e2073656520616c6c207468656972206f776e60448201527f6564206974656d7300000000000000000000000000000000000000000000000060648201526084016200022a565b600060025467ffffffffffffffff81111562000b1b5762000b1b6200117d565b60405190808252806020026020018201604052801562000b5057816020015b606081526020019060019003908162000b3a5790505b509050606060005b600254811462000cf757600081815260016020526040908190205490517f462ec4890000000000000000000000000000000000000000000000000000000081526001600160a01b0387811660048301529091169063462ec48990602401600060405180830381865afa15801562000bd3573d6000803e3d6000fd5b505050506040513d6000823e601f3d908101601f1916820160405262000bfd919081019062001667565b9150815167ffffffffffffffff81111562000c1c5762000c1c6200117d565b60405190808252806020026020018201604052801562000c46578160200160208202803683370190505b5083828151811062000c5c5762000c5c620011c5565b602002602001018190525060005b8251811462000ce15782818151811062000c885762000c88620011c5565b602002602001015184838151811062000ca55762000ca5620011c5565b6020026020010151828151811062000cc15762000cc1620011c5565b60209081029190910101528062000cd881620011db565b91505062000c6a565b508062000cee81620011db565b91505062000b58565b50909392505050565b62000d77828260405160240162000d19929190620016a0565b60408051601f198184030181529190526020810180517bffffffffffffffffffffffffffffffffffffffffffffffffffffffff167f319af3330000000000000000000000000000000000000000000000000000000017905262000d7b565b5050565b80516a636f6e736f6c652e6c6f67602083016000808483855afa5050505050565b6130ff80620016ce83390190565b6020808252825182820181905260009190848201906040850190845b8181101562000ded5783516001600160a01b03168352928401929184019160010162000dc6565b50909695505050505050565b6001600160a01b0381168114620006d857600080fd5b60006020828403121562000e2257600080fd5b813562000e2f8162000df9565b9392505050565b6000806040838503121562000e4a57600080fd5b823562000e578162000df9565b91506020830135801515811462000e6d57600080fd5b809150509250929050565b6000806040838503121562000e8c57600080fd5b823562000e998162000df9565b946020939093013593505050565b60005b8381101562000ec457818101518382015260200162000eaa565b50506000910152565b6000815180845262000ee781602086016020860162000ea7565b601f01601f19169290920160200192915050565b600081518084526020808501945080840160005b8381101562000f2d5781518752958201959082019060010162000f0f565b509495945050505050565b600082825180855260208086019550808260051b84010181860160005b8481101562000f8757601f1986840301895262000f7483835162000ecd565b9884019892509083019060010162000f55565b5090979650505050505050565b600081518084526020808501945080840160005b8381101562000f2d5781516001600160a01b03168752958201959082019060010162000fa8565b606081526000845161016080606085015262000ff06101c085018362000ecd565b91506020870151605f198086850301608087015262001010848362000ecd565b9350604089015191506200102f60a08701836001600160a01b03169052565b60608901519150808685030160c08701526200104c848362000ecd565b935060808901519150808685030160e08701526200106b848362000ecd565b935060a089015191506101008187860301818801526200108c858462000ecd565b945060c08a01519250610120838189015260e08b015193506101408389880301818a0152620010bc878662000efb565b9650828c015194508389880301868a0152620010d9878662000f38565b9650818c0151955083898803016101808a0152620010f8878762000f94565b9b01516101a08901525050505060208401959095525050604001525090565b6000602080830181845280855180835260408601915060408160051b870101925083870160005b828110156200117057603f198886030184526200115d85835162000efb565b945092850192908501906001016200113e565b5092979650505050505050565b634e487b7160e01b600052604160045260246000fd5b634e487b7160e01b600052601160045260246000fd5b80820180821115620011bf57620011bf62001193565b92915050565b634e487b7160e01b600052603260045260246000fd5b600060018201620011f057620011f062001193565b5060010190565b80516200078f8162000df9565b6000602082840312156200121757600080fd5b815162000e2f8162000df9565b604051610160810167ffffffffffffffff811182821017156200124b576200124b6200117d565b60405290565b604051601f8201601f1916810167ffffffffffffffff811182821017156200127d576200127d6200117d565b604052919050565b600082601f8301126200129757600080fd5b815167ffffffffffffffff811115620012b457620012b46200117d565b620012c9601f8201601f191660200162001251565b818152846020838601011115620012df57600080fd5b620012f282602083016020870162000ea7565b949350505050565b600067ffffffffffffffff8211156200131757620013176200117d565b5060051b60200190565b600082601f8301126200133357600080fd5b815160206200134c6200134683620012fa565b62001251565b82815260059290921b840181019181810190868411156200136c57600080fd5b8286015b8481101562001389578051835291830191830162001370565b509695505050505050565b600082601f830112620013a657600080fd5b81516020620013b96200134683620012fa565b82815260059290921b84018101918181019086841115620013d957600080fd5b8286015b848110156200138957805167ffffffffffffffff811115620013ff5760008081fd5b6200140f8986838b010162001285565b845250918301918301620013dd565b600082601f8301126200143057600080fd5b81516020620014436200134683620012fa565b82815260059290921b840181019181810190868411156200146357600080fd5b8286015b84811015620013895780516200147d8162000df9565b835291830191830162001467565b6000602082840312156200149e57600080fd5b815167ffffffffffffffff80821115620014b757600080fd5b908301906101608286031215620014cd57600080fd5b620014d762001224565b825182811115620014e757600080fd5b620014f58782860162001285565b8252506020830151828111156200150b57600080fd5b620015198782860162001285565b6020830152506200152d60408401620011f7565b60408201526060830151828111156200154557600080fd5b620015538782860162001285565b6060830152506080830151828111156200156c57600080fd5b6200157a8782860162001285565b60808301525060a0830151828111156200159357600080fd5b620015a18782860162001285565b60a08301525060c083015160c082015260e083015182811115620015c457600080fd5b620015d28782860162001321565b60e0830152506101008084015183811115620015ed57600080fd5b620015fb8882870162001394565b82840152505061012080840151838111156200161657600080fd5b62001624888287016200141e565b91830191909152506101409283015192810192909252509392505050565b600080604083850312156200165657600080fd5b505080516020909101519092909150565b6000602082840312156200167a57600080fd5b815167ffffffffffffffff8111156200169257600080fd5b620012f28482850162001321565b604081526000620016b5604083018562000ecd565b90506001600160a01b0383166020830152939250505056fe6080604052600680546001600160a01b031916735fbdb2315678afecb367f032d93f642f64180aa3179055600b805460ff191660011790553480156200004457600080fd5b50604051620030ff380380620030ff833981016040819052620000679162000153565b6040518060400160405280601481526020017f4469676974616c436f7079417574656e7469736b0000000000000000000000008152506040518060400160405280600381526020016244434160e81b8152508160009081620000ca91906200022a565b506001620000d982826200022a565b50506006546001600160a01b0316331490506200012d5760405162461bcd60e51b815260206004820152600e60248201526d139bdd08185d5d1a1bdc9a5e995960921b604482015260640160405180910390fd5b600980546001600160a01b0319166001600160a01b0392909216919091179055620002f6565b6000602082840312156200016657600080fd5b81516001600160a01b03811681146200017e57600080fd5b9392505050565b634e487b7160e01b600052604160045260246000fd5b600181811c90821680620001b057607f821691505b602082108103620001d157634e487b7160e01b600052602260045260246000fd5b50919050565b601f8211156200022557600081815260208120601f850160051c81016020861015620002005750805b601f850160051c820191505b8181101562000221578281556001016200020c565b5050505b505050565b81516001600160401b0381111562000246576200024662000185565b6200025e816200025784546200019b565b84620001d7565b602080601f8311600181146200029657600084156200027d5750858301515b600019600386901b1c1916600185901b17855562000221565b600085815260208120601f198616915b82811015620002c757888601518255948401946001909101908401620002a6565b5085821015620002e65787850151600019600388901b60f8161c191681555b5050505050600190811b01905550565b612df980620003066000396000f3fe608060405234801561001057600080fd5b50600436106101985760003560e01c80636352211e116100e3578063b88d4fde1161008c578063e474597011610066578063e47459701461037a578063e7846b661461038d578063e985e9c5146103b857600080fd5b8063b88d4fde14610341578063c41a360a14610354578063c87b56dd1461036757600080fd5b806395d89b41116100bd57806395d89b4114610313578063a22cb4651461031b578063a3d2065f1461032e57600080fd5b80636352211e146102cc57806370a08231146102df57806386833e911461030057600080fd5b80631dc4870c1161014557806342966c681161011f57806342966c6814610286578063462ec489146102995780634f41c77f146102b957600080fd5b80631dc4870c1461024057806323b872dd1461026057806342842e0e1461027357600080fd5b8063095ea7b311610176578063095ea7b31461020557806313f12e431461021a57806315752dde1461022d57600080fd5b806301ffc9a71461019d57806306fdde03146101c5578063081812fc146101da575b600080fd5b6101b06101ab3660046123f9565b6103f4565b60405190151581526020015b60405180910390f35b6101cd610491565b6040516101bc9190612466565b6101ed6101e8366004612479565b610523565b6040516001600160a01b0390911681526020016101bc565b6102186102133660046124a9565b61054a565b005b610218610228366004612479565b61069e565b61021861023b366004612479565b610710565b61025361024e366004612479565b610785565b6040516101bc919061259f565b61021861026e3660046126ca565b610eb6565b6102186102813660046126ca565b610f2d565b610218610294366004612479565b610f48565b6102ac6102a7366004612706565b6110a4565b6040516101bc9190612721565b6102186102c7366004612773565b61115d565b6101ed6102da366004612479565b6111bb565b6102f26102ed366004612706565b611220565b6040519081526020016101bc565b6102f261030e3660046127d9565b6112ba565b6101cd61153d565b6102186103293660046128ca565b61154c565b6101b061033c366004612706565b61155b565b61021861034f36600461298d565b6115e3565b6101ed610362366004612479565b611661565b6101cd610375366004612479565b61166c565b610218610388366004612a09565b6116e0565b6101b061039b366004612479565b6000908152600860205260409020600b015460ff16151560011490565b6101b06103c6366004612a74565b6001600160a01b03918216600090815260056020908152604080832093909416825291909152205460ff1690565b60006001600160e01b031982167f80ac58cd00000000000000000000000000000000000000000000000000000000148061045757506001600160e01b031982167f5b5e139f00000000000000000000000000000000000000000000000000000000145b8061048b57507f01ffc9a7000000000000000000000000000000000000000000000000000000006001600160e01b03198316145b92915050565b6060600080546104a090612aa7565b80601f01602080910402602001604051908101604052809291908181526020018280546104cc90612aa7565b80156105195780601f106104ee57610100808354040283529160200191610519565b820191906000526020600020905b8154815290600101906020018083116104fc57829003601f168201915b5050505050905090565b600061052e826119c4565b506000908152600460205260409020546001600160a01b031690565b6000610555826111bb565b9050806001600160a01b0316836001600160a01b0316036105e35760405162461bcd60e51b815260206004820152602160248201527f4552433732313a20617070726f76616c20746f2063757272656e74206f776e6560448201527f720000000000000000000000000000000000000000000000000000000000000060648201526084015b60405180910390fd5b336001600160a01b038216148061061d57506001600160a01b038116600090815260056020908152604080832033845290915290205460ff165b61068f5760405162461bcd60e51b815260206004820152603d60248201527f4552433732313a20617070726f76652063616c6c6572206973206e6f7420746f60448201527f6b656e206f776e6572206f7220617070726f76656420666f7220616c6c00000060648201526084016105da565b6106998383611a2b565b505050565b806106a8816111bb565b6001600160a01b0316336001600160a01b0316146106f45760405162461bcd60e51b81526020600482015260096024820152684e6f7420796f75727360b81b60448201526064016105da565b506000908152600860205260409020600b01805460ff19169055565b8061071a816111bb565b6001600160a01b0316336001600160a01b0316146107665760405162461bcd60e51b81526020600482015260096024820152684e6f7420796f75727360b81b60448201526064016105da565b506000908152600860205260409020600b01805460ff19166001179055565b6107eb604051806101600160405280606081526020016060815260200160006001600160a01b0316815260200160608152602001606081526020016060815260200160008152602001606081526020016060815260200160608152602001600081525090565b6107f4826119c4565b610815826000908152600860205260409020600b015460ff16151560011490565b80610839575061082482611661565b6001600160a01b0316336001600160a01b0316145b6108ab5760405162461bcd60e51b815260206004820152602a60248201527f596f7520646f206e6f7420686176652061636365737320746f2074686973206960448201527f6e666f726d6174696f6e0000000000000000000000000000000000000000000060648201526084016105da565b6000828152600860205260408120600a0154908167ffffffffffffffff8111156108d7576108d7612901565b604051908082528060200260200182016040528015610900578160200160208202803683370190505b50905060008267ffffffffffffffff81111561091e5761091e612901565b60405190808252806020026020018201604052801561095157816020015b606081526020019060019003908161093c5790505b50905060008367ffffffffffffffff81111561096f5761096f612901565b604051908082528060200260200182016040528015610998578160200160208202803683370190505b50905060005b848114610b0b57600087815260086020908152604080832084845260070190915290205484518590839081106109d6576109d6612ae1565b602090810291909101810191909152600088815260088083526040808320858452909101909252208054610a0990612aa7565b80601f0160208091040260200160405190810160405280929190818152602001828054610a3590612aa7565b8015610a825780601f10610a5757610100808354040283529160200191610a82565b820191906000526020600020905b815481529060010190602001808311610a6557829003601f168201915b5050505050838281518110610a9957610a99612ae1565b6020908102919091018101919091526000888152600882526040808220848352600901909252205482516001600160a01b0390911690839083908110610ae157610ae1612ae1565b6001600160a01b039092166020928302919091019091015280610b0381612b0d565b91505061099e565b50604080516101608101825260008881526008602052919091208054829190610b3390612aa7565b80601f0160208091040260200160405190810160405280929190818152602001828054610b5f90612aa7565b8015610bac5780601f10610b8157610100808354040283529160200191610bac565b820191906000526020600020905b815481529060010190602001808311610b8f57829003601f168201915b50505050508152602001600860008981526020019081526020016000206001018054610bd790612aa7565b80601f0160208091040260200160405190810160405280929190818152602001828054610c0390612aa7565b8015610c505780601f10610c2557610100808354040283529160200191610c50565b820191906000526020600020905b815481529060010190602001808311610c3357829003601f168201915b5050509183525050600088815260086020818152604080842060028101546001600160a01b031683870152938c905291905260039091018054919092019190610c9890612aa7565b80601f0160208091040260200160405190810160405280929190818152602001828054610cc490612aa7565b8015610d115780601f10610ce657610100808354040283529160200191610d11565b820191906000526020600020905b815481529060010190602001808311610cf457829003601f168201915b50505050508152602001600860008981526020019081526020016000206004018054610d3c90612aa7565b80601f0160208091040260200160405190810160405280929190818152602001828054610d6890612aa7565b8015610db55780601f10610d8a57610100808354040283529160200191610db5565b820191906000526020600020905b815481529060010190602001808311610d9857829003601f168201915b50505050508152602001600860008981526020019081526020016000206005018054610de090612aa7565b80601f0160208091040260200160405190810160405280929190818152602001828054610e0c90612aa7565b8015610e595780601f10610e2e57610100808354040283529160200191610e59565b820191906000526020600020905b815481529060010190602001808311610e3c57829003601f168201915b505050505081526020016008600089815260200190815260200160002060060154815260200184815260200183815260200182815260200160086000898152602001908152602001600020600a0154815250945050505050919050565b610ec03382611a99565b610f225760405162461bcd60e51b815260206004820152602d60248201527f4552433732313a2063616c6c6572206973206e6f7420746f6b656e206f776e6560448201526c1c881bdc88185c1c1c9bdd9959609a1b60648201526084016105da565b610699838383611b18565b610699838383604051806020016040528060008152506115e3565b80610f52816111bb565b6001600160a01b0316336001600160a01b031614610f9e5760405162461bcd60e51b81526020600482015260096024820152684e6f7420796f75727360b81b60448201526064016105da565b610fa782611d11565b33600090815260076020526040812090805b8254811015610fff5784838281548110610fd557610fd5612ae1565b906000526020600020015403610fed57809150610fff565b80610ff781612b0d565b915050610fb9565b508154829061101090600190612b26565b8154811061102057611020612ae1565b906000526020600020015482828154811061103d5761103d612ae1565b90600052602060002001819055508180548061105b5761105b612b39565b60019003818190600052602060002001600090559055837f25fad63505da82802e9194c8e9655a2c22aaccac9e1c5a7bf7e7c6c1f78dfa7760405160405180910390a250505050565b6006546060906001600160a01b031633146110f25760405162461bcd60e51b815260206004820152600e60248201526d139bdd08185d5d1a1bdc9a5e995960921b60448201526064016105da565b6001600160a01b0382166000908152600760209081526040918290208054835181840281018401909452808452909183018282801561115057602002820191906000526020600020905b81548152602001906001019080831161113c575b505050505090505b919050565b6006546001600160a01b031633146111a85760405162461bcd60e51b815260206004820152600e60248201526d139bdd08185d5d1a1bdc9a5e995960921b60448201526064016105da565b600b805460ff1916911515919091179055565b6000818152600260205260408120546001600160a01b03168061048b5760405162461bcd60e51b815260206004820152601860248201527f4552433732313a20696e76616c696420746f6b656e204944000000000000000060448201526064016105da565b60006001600160a01b03821661129e5760405162461bcd60e51b815260206004820152602960248201527f4552433732313a2061646472657373207a65726f206973206e6f74206120766160448201527f6c6964206f776e6572000000000000000000000000000000000000000000000060648201526084016105da565b506001600160a01b031660009081526003602052604090205490565b6006546040517fccd72f730000000000000000000000000000000000000000000000000000000081523360048201526000916001600160a01b03169063ccd72f7390602401602060405180830381865afa15801561131c573d6000803e3d6000fd5b505050506040513d601f19601f820116820180604052508101906113409190612b4f565b61137d5760405162461bcd60e51b815260206004820152600e60248201526d139bdd08185d5d1a1bdc9a5e995960921b60448201526064016105da565b600b5460ff166113cf5760405162461bcd60e51b815260206004820152601160248201527f4974656d206e6f7420666f722073616c6500000000000000000000000000000060448201526064016105da565b600a80549060006113df83612b0d565b9190505590506113ef3382611da6565b6000818152600860205260409020806114098c8e83612bba565b50600181016114198a8c83612bba565b506002810180546001600160a01b031916331790556003810161143d888a83612bba565b506004810161144d868883612bba565b506005810161145d848683612bba565b504260068201819055600a82018054600090815260078401602090815260408083209490945591548152600884019091522061149a8a8c83612bba565b50600a810180546000908152600983016020526040812080546001600160a01b03191633179055600b8301805460ff19166001179055815491906114dd83612b0d565b909155505033600090815260076020908152604080832080546001810182559084529183209091018490555183917f4a5fd4291caa5a4440212ccfdad7027a5f8cf181f4003a75678e659be329a90291a2509a9950505050505050505050565b6060600180546104a090612aa7565b611557338383611dc0565b5050565b6009546040517fab7e7cf60000000000000000000000000000000000000000000000000000000081526001600160a01b038381166004830152600092169063ab7e7cf690602401602060405180830381865afa1580156115bf573d6000803e3d6000fd5b505050506040513d601f19601f8201168201806040525081019061048b9190612b4f565b6115ed3383611a99565b61164f5760405162461bcd60e51b815260206004820152602d60248201527f4552433732313a2063616c6c6572206973206e6f7420746f6b656e206f776e6560448201526c1c881bdc88185c1c1c9bdd9959609a1b60648201526084016105da565b61165b84848484611e8e565b50505050565b600061048b826111bb565b6060611677826119c4565b600061168e60408051602081019091526000815290565b905060008151116116ae57604051806020016040528060008152506116d9565b806116b884611f0c565b6040516020016116c9929190612c7b565b6040516020818303038152906040525b9392505050565b82611702816000908152600860205260409020600b015460ff16151560011490565b61174e5760405162461bcd60e51b815260206004820152601160248201527f4974656d206e6f7420666f722073616c6500000000000000000000000000000060448201526064016105da565b611757846119c4565b6117608361155b565b6117d25760405162461bcd60e51b815260206004820152602760248201527f5468697320627579657220646f6573206e6f742068617665206120757365722060448201527f6163636f756e740000000000000000000000000000000000000000000000000060648201526084016105da565b6117de33848685611e8e565b6000848152600860205260409020600181016117fa8482612caa565b506002810180546001600160a01b0319166001600160a01b0386161790554260068201819055600a8201805460009081526007840160209081526040808320949094559154815260088401909152206118538482612caa565b50600a810180546000908152600983016020526040812080546001600160a01b031916331790558154919061188783612b0d565b9091555050600b8101805460ff1916905533600090815260076020526040812090805b82548110156118f057878382815481106118c6576118c6612ae1565b9060005260206000200154036118de578091506118f0565b806118e881612b0d565b9150506118aa565b508154829061190190600190612b26565b8154811061191157611911612ae1565b906000526020600020015482828154811061192e5761192e612ae1565b90600052602060002001819055508180548061194c5761194c612b39565b6000828152602080822083016000199081018390559092019092556001600160a01b03881680835260078252604080842080546001810182559085529284209092018a90559051899233917f1680e2ced12663501317949835a3a398cce2c350caa99e0536893c95a1924fa79190a450505050505050565b6000818152600260205260409020546001600160a01b0316611a285760405162461bcd60e51b815260206004820152601860248201527f4552433732313a20696e76616c696420746f6b656e204944000000000000000060448201526064016105da565b50565b600081815260046020526040902080546001600160a01b0319166001600160a01b0384169081179091558190611a60826111bb565b6001600160a01b03167f8c5be1e5ebec7d5bd14f71427d1e84f3dd0314c0f7b2291e5b200ac8c7c3b92560405160405180910390a45050565b600080611aa5836111bb565b9050806001600160a01b0316846001600160a01b03161480611aec57506001600160a01b0380821660009081526005602090815260408083209388168352929052205460ff165b80611b105750836001600160a01b0316611b0584610523565b6001600160a01b0316145b949350505050565b826001600160a01b0316611b2b826111bb565b6001600160a01b031614611b8f5760405162461bcd60e51b815260206004820152602560248201527f4552433732313a207472616e736665722066726f6d20696e636f72726563742060448201526437bbb732b960d91b60648201526084016105da565b6001600160a01b038216611c0a5760405162461bcd60e51b8152602060048201526024808201527f4552433732313a207472616e7366657220746f20746865207a65726f2061646460448201527f726573730000000000000000000000000000000000000000000000000000000060648201526084016105da565b826001600160a01b0316611c1d826111bb565b6001600160a01b031614611c815760405162461bcd60e51b815260206004820152602560248201527f4552433732313a207472616e736665722066726f6d20696e636f72726563742060448201526437bbb732b960d91b60648201526084016105da565b600081815260046020908152604080832080546001600160a01b03199081169091556001600160a01b0387811680865260038552838620805460001901905590871680865283862080546001019055868652600290945282852080549092168417909155905184937fddf252ad1be2c89b69c2b068fc378daa952ba7f163c4a11628f55a4df523b3ef91a4505050565b6000611d1c826111bb565b9050611d27826111bb565b600083815260046020908152604080832080546001600160a01b03199081169091556001600160a01b0385168085526003845282852080546000190190558785526002909352818420805490911690555192935084927fddf252ad1be2c89b69c2b068fc378daa952ba7f163c4a11628f55a4df523b3ef908390a45050565b611557828260405180602001604052806000815250611fac565b816001600160a01b0316836001600160a01b031603611e215760405162461bcd60e51b815260206004820152601960248201527f4552433732313a20617070726f766520746f2063616c6c65720000000000000060448201526064016105da565b6001600160a01b03838116600081815260056020908152604080832094871680845294825291829020805460ff191686151590811790915591519182527f17307eab39ab6107e8899845ad3d59bd9653f200f220920489ca2b5937696c31910160405180910390a3505050565b611e99848484611b18565b611ea58484848461202a565b61165b5760405162461bcd60e51b815260206004820152603260248201527f4552433732313a207472616e7366657220746f206e6f6e20455243373231526560448201527131b2b4bb32b91034b6b83632b6b2b73a32b960711b60648201526084016105da565b60606000611f1983612176565b600101905060008167ffffffffffffffff811115611f3957611f39612901565b6040519080825280601f01601f191660200182016040528015611f63576020820181803683370190505b5090508181016020015b600019017f3031323334353637383961626364656600000000000000000000000000000000600a86061a8153600a8504945084611f6d57509392505050565b611fb68383612258565b611fc3600084848461202a565b6106995760405162461bcd60e51b815260206004820152603260248201527f4552433732313a207472616e7366657220746f206e6f6e20455243373231526560448201527131b2b4bb32b91034b6b83632b6b2b73a32b960711b60648201526084016105da565b60006001600160a01b0384163b1561216b57604051630a85bd0160e11b81526001600160a01b0385169063150b7a029061206e903390899088908890600401612d6a565b6020604051808303816000875af19250505080156120a9575060408051601f3d908101601f191682019092526120a691810190612da6565b60015b612151573d8080156120d7576040519150601f19603f3d011682016040523d82523d6000602084013e6120dc565b606091505b5080516000036121495760405162461bcd60e51b815260206004820152603260248201527f4552433732313a207472616e7366657220746f206e6f6e20455243373231526560448201527131b2b4bb32b91034b6b83632b6b2b73a32b960711b60648201526084016105da565b805181602001fd5b6001600160e01b031916630a85bd0160e11b149050611b10565b506001949350505050565b6000807a184f03e93ff9f4daa797ed6e38ed64bf6a1f01000000000000000083106121bf577a184f03e93ff9f4daa797ed6e38ed64bf6a1f010000000000000000830492506040015b6d04ee2d6d415b85acef810000000083106121eb576d04ee2d6d415b85acef8100000000830492506020015b662386f26fc10000831061220957662386f26fc10000830492506010015b6305f5e1008310612221576305f5e100830492506008015b612710831061223557612710830492506004015b60648310612247576064830492506002015b600a831061048b5760010192915050565b6001600160a01b0382166122ae5760405162461bcd60e51b815260206004820181905260248201527f4552433732313a206d696e7420746f20746865207a65726f206164647265737360448201526064016105da565b6000818152600260205260409020546001600160a01b0316156123135760405162461bcd60e51b815260206004820152601c60248201527f4552433732313a20746f6b656e20616c7265616479206d696e7465640000000060448201526064016105da565b6000818152600260205260409020546001600160a01b0316156123785760405162461bcd60e51b815260206004820152601c60248201527f4552433732313a20746f6b656e20616c7265616479206d696e7465640000000060448201526064016105da565b6001600160a01b038216600081815260036020908152604080832080546001019055848352600290915280822080546001600160a01b0319168417905551839291907fddf252ad1be2c89b69c2b068fc378daa952ba7f163c4a11628f55a4df523b3ef908290a45050565b6001600160e01b031981168114611a2857600080fd5b60006020828403121561240b57600080fd5b81356116d9816123e3565b60005b83811015612431578181015183820152602001612419565b50506000910152565b60008151808452612452816020860160208601612416565b601f01601f19169290920160200192915050565b6020815260006116d9602083018461243a565b60006020828403121561248b57600080fd5b5035919050565b80356001600160a01b038116811461115857600080fd5b600080604083850312156124bc57600080fd5b6124c583612492565b946020939093013593505050565b600081518084526020808501945080840160005b83811015612503578151875295820195908201906001016124e7565b509495945050505050565b600082825180855260208086019550808260051b84010181860160005b8481101561255957601f1986840301895261254783835161243a565b9884019892509083019060010161252b565b5090979650505050505050565b600081518084526020808501945080840160005b838110156125035781516001600160a01b03168752958201959082019060010161257a565b60208152600082516101608060208501526125be61018085018361243a565b91506020850151601f19808685030160408701526125dc848361243a565b9350604087015191506125fa60608701836001600160a01b03169052565b6060870151915080868503016080870152612615848361243a565b935060808701519150808685030160a0870152612632848361243a565b935060a08701519150808685030160c087015261264f848361243a565b935060c087015160e087015260e0870151915061010081878603018188015261267885846124d3565b945080880151925050610120818786030181880152612697858461250e565b9450808801519250506101408187860301818801526126b68584612566565b970151959092019490945250929392505050565b6000806000606084860312156126df57600080fd5b6126e884612492565b92506126f660208501612492565b9150604084013590509250925092565b60006020828403121561271857600080fd5b6116d982612492565b6020808252825182820181905260009190848201906040850190845b818110156127595783518352928401929184019160010161273d565b50909695505050505050565b8015158114611a2857600080fd5b60006020828403121561278557600080fd5b81356116d981612765565b60008083601f8401126127a257600080fd5b50813567ffffffffffffffff8111156127ba57600080fd5b6020830191508360208285010111156127d257600080fd5b9250929050565b60008060008060008060008060008060a08b8d0312156127f857600080fd5b8a3567ffffffffffffffff8082111561281057600080fd5b61281c8e838f01612790565b909c509a5060208d013591508082111561283557600080fd5b6128418e838f01612790565b909a50985060408d013591508082111561285a57600080fd5b6128668e838f01612790565b909850965060608d013591508082111561287f57600080fd5b61288b8e838f01612790565b909650945060808d01359150808211156128a457600080fd5b506128b18d828e01612790565b915080935050809150509295989b9194979a5092959850565b600080604083850312156128dd57600080fd5b6128e683612492565b915060208301356128f681612765565b809150509250929050565b634e487b7160e01b600052604160045260246000fd5b600067ffffffffffffffff8084111561293257612932612901565b604051601f8501601f19908116603f0116810190828211818310171561295a5761295a612901565b8160405280935085815286868601111561297357600080fd5b858560208301376000602087830101525050509392505050565b600080600080608085870312156129a357600080fd5b6129ac85612492565b93506129ba60208601612492565b925060408501359150606085013567ffffffffffffffff8111156129dd57600080fd5b8501601f810187136129ee57600080fd5b6129fd87823560208401612917565b91505092959194509250565b600080600060608486031215612a1e57600080fd5b83359250612a2e60208501612492565b9150604084013567ffffffffffffffff811115612a4a57600080fd5b8401601f81018613612a5b57600080fd5b612a6a86823560208401612917565b9150509250925092565b60008060408385031215612a8757600080fd5b612a9083612492565b9150612a9e60208401612492565b90509250929050565b600181811c90821680612abb57607f821691505b602082108103612adb57634e487b7160e01b600052602260045260246000fd5b50919050565b634e487b7160e01b600052603260045260246000fd5b634e487b7160e01b600052601160045260246000fd5b600060018201612b1f57612b1f612af7565b5060010190565b8181038181111561048b5761048b612af7565b634e487b7160e01b600052603160045260246000fd5b600060208284031215612b6157600080fd5b81516116d981612765565b601f82111561069957600081815260208120601f850160051c81016020861015612b935750805b601f850160051c820191505b81811015612bb257828155600101612b9f565b505050505050565b67ffffffffffffffff831115612bd257612bd2612901565b612be683612be08354612aa7565b83612b6c565b6000601f841160018114612c1a5760008515612c025750838201355b600019600387901b1c1916600186901b178355612c74565b600083815260209020601f19861690835b82811015612c4b5786850135825560209485019460019092019101612c2b565b5086821015612c685760001960f88860031b161c19848701351681555b505060018560011b0183555b5050505050565b60008351612c8d818460208801612416565b835190830190612ca1818360208801612416565b01949350505050565b815167ffffffffffffffff811115612cc457612cc4612901565b612cd881612cd28454612aa7565b84612b6c565b602080601f831160018114612d0d5760008415612cf55750858301515b600019600386901b1c1916600185901b178555612bb2565b600085815260208120601f198616915b82811015612d3c57888601518255948401946001909101908401612d1d565b5085821015612d5a5787850151600019600388901b60f8161c191681555b5050505050600190811b01905550565b60006001600160a01b03808716835280861660208401525083604083015260806060830152612d9c608083018461243a565b9695505050505050565b600060208284031215612db857600080fd5b81516116d9816123e356fea2646970667358221220de0518218fcbd7398d7bf691e76c4687a1591cd5a9495a13a528e6164720ea3d64736f6c6343000811003341646472657373206f66207468652063726561746564204469676974616c20436f707920636f6e7472616374a2646970667358221220ac0b304180628d13cc0ca86b7f6790c576c748ad98848642e0f3b2cad8eb408364736f6c63430008110033608060405234801561001057600080fd5b5061051c806100206000396000f3fe608060405234801561001057600080fd5b50600436106100365760003560e01c806387b162b51461003b578063ab7e7cf614610050575b600080fd5b61004e6100493660046102af565b61009d565b005b61008961005e366004610313565b73ffffffffffffffffffffffffffffffffffffffff1660009081526020819052604090205460ff1690565b604051901515815260200160405180910390f35b3360009081526020819052604090205460ff161561011b576040517f08c379a000000000000000000000000000000000000000000000000000000000815260206004820152601260248201527f5573657220616c72656164792065786973740000000000000000000000000000604482015260640160405180910390fd5b60008282604051602001610130929190610380565b60408051601f1981840301815282825280516020918201208383018352868452338483018190526000908152808352838120805460ff1916600190811790915582825290925291902082519193508291819061018c9082610426565b5060209190910151600190910180547fffffffffffffffffffffffff00000000000000000000000000000000000000001673ffffffffffffffffffffffffffffffffffffffff90921691909117905560405133907f84d75964cf2e21c2c70c4a2a2015ccbce5088f332f16d9d2e8eae76b7a3cc03990600090a250505050565b634e487b7160e01b600052604160045260246000fd5b600082601f83011261023357600080fd5b813567ffffffffffffffff8082111561024e5761024e61020c565b604051601f8301601f19908116603f011681019082821181831017156102765761027661020c565b8160405283815286602085880101111561028f57600080fd5b836020870160208301376000602085830101528094505050505092915050565b600080604083850312156102c257600080fd5b823567ffffffffffffffff808211156102da57600080fd5b6102e686838701610222565b935060208501359150808211156102fc57600080fd5b5061030985828601610222565b9150509250929050565b60006020828403121561032557600080fd5b813573ffffffffffffffffffffffffffffffffffffffff8116811461034957600080fd5b9392505050565b6000815160005b818110156103715760208185018101518683015201610357565b50600093019283525090919050565b600061039561038f8386610350565b84610350565b949350505050565b600181811c908216806103b157607f821691505b6020821081036103d157634e487b7160e01b600052602260045260246000fd5b50919050565b601f82111561042157600081815260208120601f850160051c810160208610156103fe5750805b601f850160051c820191505b8181101561041d5782815560010161040a565b5050505b505050565b815167ffffffffffffffff8111156104405761044061020c565b6104548161044e845461039d565b846103d7565b602080601f83116001811461048957600084156104715750858301515b600019600386901b1c1916600185901b17855561041d565b600085815260208120601f198616915b828110156104b857888601518255948401946001909101908401610499565b50858210156104d65787850151600019600388901b60f8161c191681555b5050505050600190811b0190555056fea2646970667358221220b7157d3a9c92376ade1df0b3895ce2c63d5b03298ab814f314602979fbcba18164736f6c63430008110033608060405234801561001057600080fd5b50600280546001600160a01b03191633179055610aa2806100326000396000f3fe608060405234801561001057600080fd5b50600436106100415760003560e01c806318d0e8b21461004657806343b9e89a1461006f578063e11d390214610097575b600080fd5b61005961005436600461066b565b6100ac565b60405161006691906106d5565b60405180910390f35b61008261007d36600461066b565b610220565b60408051928352602083019190915201610066565b6100aa6100a53660046107a7565b61030a565b005b6002546060906001600160a01b031633146100c657600080fd5b6001600160a01b03821660009081526020818152604080832080548251818502810185019093528083529193909284015b828210156102155760008481526020908190206040805160e0810182526006860290920180546001600160a01b039081168452600182015480821695850195909552600160a01b90940460ff16918301919091526002810154909216606082015260038201546080820152600482015460a082015260058201805491929160c084019190610184906108a8565b80601f01602080910402602001604051908101604052809291908181526020018280546101b0906108a8565b80156101fd5780601f106101d2576101008083540402835291602001916101fd565b820191906000526020600020905b8154815290600101906020018083116101e057829003601f168201915b505050505081525050815260200190600101906100f7565b505050509050919050565b60025460009081906001600160a01b0316331461023c57600080fd5b6001600160a01b038316600090815260208190526040812054900361026657506000905080915091565b60008060005b6001600160a01b03861660009081526020819052604090205481146102ff576001600160a01b03861660009081526020819052604090208054829081106102b5576102b56108e2565b60009182526020909120600690910201600101546102dd90600160a01b900460ff168461090e565b9250816102e981610927565b92505080806102f790610927565b91505061026c565b509092509050915091565b6040517fc41a360a00000000000000000000000000000000000000000000000000000000815260048101849052849084906001600160a01b0383169063c41a360a90602401602060405180830381865afa15801561036c573d6000803e3d6000fd5b505050506040513d601f19601f820116820180604052508101906103909190610940565b6001600160a01b0316336001600160a01b03161461041b5760405162461bcd60e51b815260206004820152603360248201527f596f7520646f20617265206e6f74206175746f72697a656420746f20636f6d6d60448201527f656e74206f6e20746869732070726f647563740000000000000000000000000060648201526084015b60405180910390fd5b600084815260016020526040902054849060ff16156104a25760405162461bcd60e51b815260206004820152603360248201527f54686572652068617320616c7265616479206265656e2061207265766965772060448201527f6f662074686973207472616e73616374696f6e000000000000000000000000006064820152608401610412565b60068860ff161080156104b8575060008860ff16115b6105045760405162461bcd60e51b815260206004820152601260248201527f4e6f7420612076616c696420726174696e6700000000000000000000000000006044820152606401610412565b6040805160e0810182526001600160a01b03808c1680835233602080850191825260ff808f168688019081528e861660608801908152608088018f815260a089018f815260c08a018f815260009889528887529a8820805460018181018355918a52969098208a516006909702018054968a167fffffffffffffffffffffffff0000000000000000000000000000000000000000978816178155965197870180549451909516600160a01b027fffffffffffffffffffffff000000000000000000000000000000000000000000909416978916979097179290921790925590516002840180549190961692169190911790935591516003830155516004820155915190918291600582019061061990826109ac565b50506040518791507f31339475a8be639e571a053b511dfbd721a2312aeb730417a8c4ed40bdada1a990600090a250505050505050505050565b6001600160a01b038116811461066857600080fd5b50565b60006020828403121561067d57600080fd5b813561068881610653565b9392505050565b6000815180845260005b818110156106b557602081850181015186830182015201610699565b506000602082860101526020601f19601f83011685010191505092915050565b60006020808301818452808551808352604092508286019150828160051b87010184880160005b8381101561078357603f19898403018552815180516001600160a01b039081168552888201518116898601528782015160ff1688860152606080830151909116908501526080808201519085015260a0808201519085015260c09081015160e09185018290529061076f8186018361068f565b9689019694505050908601906001016106fc565b509098975050505050505050565b634e487b7160e01b600052604160045260246000fd5b60008060008060008060c087890312156107c057600080fd5b86356107cb81610653565b9550602087013560ff811681146107e157600080fd5b945060408701356107f181610653565b9350606087013592506080870135915060a087013567ffffffffffffffff8082111561081c57600080fd5b818901915089601f83011261083057600080fd5b81358181111561084257610842610791565b604051601f8201601f19908116603f0116810190838211818310171561086a5761086a610791565b816040528281528c602084870101111561088357600080fd5b8260208601602083013760006020848301015280955050505050509295509295509295565b600181811c908216806108bc57607f821691505b6020821081036108dc57634e487b7160e01b600052602260045260246000fd5b50919050565b634e487b7160e01b600052603260045260246000fd5b634e487b7160e01b600052601160045260246000fd5b80820180821115610921576109216108f8565b92915050565b600060018201610939576109396108f8565b5060010190565b60006020828403121561095257600080fd5b815161068881610653565b601f8211156109a757600081815260208120601f850160051c810160208610156109845750805b601f850160051c820191505b818110156109a357828155600101610990565b5050505b505050565b815167ffffffffffffffff8111156109c6576109c6610791565b6109da816109d484546108a8565b8461095d565b602080601f831160018114610a0f57600084156109f75750858301515b600019600386901b1c1916600185901b1785556109a3565b600085815260208120601f198616915b82811015610a3e57888601518255948401946001909101908401610a1f565b5085821015610a5c5787850151600019600388901b60f8161c191681555b5050505050600190811b0190555056fea26469706673582212207ad92996405d2a4a71904aaf5958a096a62a0b9987f2980e3895079d2050e2a264736f6c6343000811003341646472657373206f662074686520637265617465642052657669657720636f6e747261637441646472657373206f6620746865206372656174656420557365727320636f6e7472616374",
  "linkReferences": {},
  "deployedLinkReferences": {}
}