{
  "_format": "hh-sol-artifact-1",
  "contractName": "TrustedSeller",
  "sourceName": "contracts/TrustedSeller.sol",
  "abi": [
    {
      "inputs": [
        {
          "internalType": "string",
          "name": "_trustedSellerName",
          "type": "string"
        },
        {
          "internalType": "address",
          "name": "_systemManager",
          "type": "address"
        }
      ],
      "stateMutability": "nonpayable",
      "type": "constructor"
    },
    {
      "anonymous": false,
      "inputs": [
        {
          "indexed": true,
          "internalType": "address",
          "name": "addedAddress",
          "type": "address"
        }
      ],
      "name": "AddedTrustedAddress",
      "type": "event"
    },
    {
      "anonymous": false,
      "inputs": [
        {
          "indexed": true,
          "internalType": "address",
          "name": "buyer",
          "type": "address"
        },
        {
          "indexed": true,
          "internalType": "address",
          "name": "seller",
          "type": "address"
        }
      ],
      "name": "Purchase",
      "type": "event"
    },
    {
      "anonymous": false,
      "inputs": [
        {
          "indexed": true,
          "internalType": "address",
          "name": "removedAddress",
          "type": "address"
        }
      ],
      "name": "RemovedTrustedAddress",
      "type": "event"
    },
    {
      "inputs": [
        {
          "internalType": "address",
          "name": "_address",
          "type": "address"
        }
      ],
      "name": "addTrustedAddress",
      "outputs": [],
      "stateMutability": "nonpayable",
      "type": "function"
    },
    {
      "inputs": [
        {
          "internalType": "address",
          "name": "_address",
          "type": "address"
        }
      ],
      "name": "changeDigitalCopyContract",
      "outputs": [],
      "stateMutability": "nonpayable",
      "type": "function"
    },
    {
      "inputs": [
        {
          "internalType": "address",
          "name": "",
          "type": "address"
        },
        {
          "internalType": "address",
          "name": "",
          "type": "address"
        },
        {
          "internalType": "uint256",
          "name": "",
          "type": "uint256"
        },
        {
          "internalType": "bytes",
          "name": "",
          "type": "bytes"
        }
      ],
      "name": "onERC721Received",
      "outputs": [
        {
          "internalType": "bytes4",
          "name": "",
          "type": "bytes4"
        }
      ],
      "stateMutability": "pure",
      "type": "function"
    },
    {
      "inputs": [
        {
          "internalType": "string",
          "name": "_name",
          "type": "string"
        },
        {
          "internalType": "string",
          "name": "_price",
          "type": "string"
        },
        {
          "internalType": "string",
          "name": "_category",
          "type": "string"
        },
        {
          "internalType": "string",
          "name": "_brand",
          "type": "string"
        },
        {
          "internalType": "string",
          "name": "_serialnumber",
          "type": "string"
        },
        {
          "internalType": "address",
          "name": "_buyersAddress",
          "type": "address"
        }
      ],
      "name": "purchase",
      "outputs": [],
      "stateMutability": "nonpayable",
      "type": "function"
    },
    {
      "inputs": [
        {
          "internalType": "address",
          "name": "_address",
          "type": "address"
        }
      ],
      "name": "removeTrustedAddress",
      "outputs": [],
      "stateMutability": "nonpayable",
      "type": "function"
    },
    {
      "inputs": [],
      "name": "retrieveName",
      "outputs": [
        {
          "internalType": "string",
          "name": "",
          "type": "string"
        }
      ],
      "stateMutability": "view",
      "type": "function"
    },
    {
      "inputs": [],
      "name": "showDigitalCopyContract",
      "outputs": [
        {
          "internalType": "address",
          "name": "",
          "type": "address"
        }
      ],
      "stateMutability": "view",
      "type": "function"
    }
  ],
  "bytecode": "0x60806040523480156200001157600080fd5b5060405162001003380380620010038339810160408190526200003491620000b5565b336000908152602081905260409020805460ff19166001179055600480546001600160a01b0383166001600160a01b031990911617905560026200007983826200022c565b505050620002f8565b634e487b7160e01b600052604160045260246000fd5b80516001600160a01b0381168114620000b057600080fd5b919050565b60008060408385031215620000c957600080fd5b82516001600160401b0380821115620000e157600080fd5b818501915085601f830112620000f657600080fd5b8151818111156200010b576200010b62000082565b604051601f8201601f19908116603f0116810190838211818310171562000136576200013662000082565b816040528281526020935088848487010111156200015357600080fd5b600091505b8282101562000177578482018401518183018501529083019062000158565b60008484830101528096505050506200019281860162000098565b925050509250929050565b600181811c90821680620001b257607f821691505b602082108103620001d357634e487b7160e01b600052602260045260246000fd5b50919050565b601f8211156200022757600081815260208120601f850160051c81016020861015620002025750805b601f850160051c820191505b8181101562000223578281556001016200020e565b5050505b505050565b81516001600160401b0381111562000248576200024862000082565b62000260816200025984546200019d565b84620001d9565b602080601f8311600181146200029857600084156200027f5750858301515b600019600386901b1c1916600185901b17855562000223565b600085815260208120601f198616915b82811015620002c957888601518255948401946001909101908401620002a8565b5085821015620002e85787850151600019600388901b60f8161c191681555b5050505050600190811b01905550565b610cfb80620003086000396000f3fe608060405234801561001057600080fd5b506004361061007d5760003560e01c80632cd7f0cb1161005b5780632cd7f0cb1461011e578063bc481d3c1461013e578063f9f494ed14610151578063fe6215051461016457600080fd5b80630a5eecd714610082578063150b7a02146100a057806317d7257714610109575b600080fd5b61008a610177565b60405161009791906108ef565b60405180910390f35b6100d86100ae3660046109a2565b7f150b7a020000000000000000000000000000000000000000000000000000000095945050505050565b6040517fffffffff000000000000000000000000000000000000000000000000000000009091168152602001610097565b61011c610117366004610a11565b610209565b005b6101266103a0565b6040516001600160a01b039091168152602001610097565b61011c61014c366004610a33565b61040d565b61011c61015f366004610a11565b6107a0565b61011c610172366004610a11565b610846565b60606002805461018690610b34565b80601f01602080910402602001604051908101604052809291908181526020018280546101b290610b34565b80156101ff5780601f106101d4576101008083540402835291602001916101ff565b820191906000526020600020905b8154815290600101906020018083116101e257829003601f168201915b5050505050905090565b3360009081526020819052604090205460ff16151560011461026b5760405162461bcd60e51b8152602060048201526016602482015275165bdd48185c99481b9bdd08105d5d1a1bdc9a5e995960521b60448201526064015b60405180910390fd5b600480546040517f62f79a4c0000000000000000000000000000000000000000000000000000000081526001600160a01b03848116938201939093529116906362f79a4c90602401602060405180830381865afa1580156102d0573d6000803e3d6000fd5b505050506040513d601f19601f820116820180604052508101906102f49190610b87565b6103665760405162461bcd60e51b815260206004820152602a60248201527f546869732061646472657373206973206e6f742061204469676974616c20436f60448201527f70792061646472657373000000000000000000000000000000000000000000006064820152608401610262565b600380547fffffffffffffffffffffffff0000000000000000000000000000000000000000166001600160a01b0392909216919091179055565b3360009081526020819052604081205460ff1615156001146103fd5760405162461bcd60e51b8152602060048201526016602482015275165bdd48185c99481b9bdd08105d5d1a1bdc9a5e995960521b6044820152606401610262565b506003546001600160a01b031690565b3360009081526020819052604090205460ff16151560011461046a5760405162461bcd60e51b8152602060048201526016602482015275165bdd48185c99481b9bdd08105d5d1a1bdc9a5e995960521b6044820152606401610262565b6003546040517fa3d2065f0000000000000000000000000000000000000000000000000000000081526001600160a01b0383811660048301529091169063a3d2065f90602401602060405180830381865afa1580156104cd573d6000803e3d6000fd5b505050506040513d601f19601f820116820180604052508101906104f19190610b87565b6105635760405162461bcd60e51b815260206004820152602760248201527f5468697320627579657220646f6573206e6f742068617665206120757365722060448201527f6163636f756e74000000000000000000000000000000000000000000000000006064820152608401610262565b60008b8b8787878760405160200161058096959493929190610ba9565b60408051601f1981840301815291815281516020928301206000818152600190935291205490915060ff161561061d5760405162461bcd60e51b8152602060048201526024808201527f546869732070726f647563742068617320616c7265616479206265656e206d6960448201527f6e746564000000000000000000000000000000000000000000000000000000006064820152608401610262565b6000600360009054906101000a90046001600160a01b03166001600160a01b03166386833e918e8e8e8e8e8e8e8e8e8e6040518b63ffffffff1660e01b81526004016106729a99989796959493929190610c02565b6020604051808303816000875af1158015610691573d6000803e3d6000fd5b505050506040513d601f19601f820116820180604052508101906106b59190610c79565b9050600180600084815260200190815260200160002060006101000a81548160ff021916908315150217905550600360009054906101000a90046001600160a01b03166001600160a01b031663e474597082858e8e6040518563ffffffff1660e01b81526004016107299493929190610c92565b600060405180830381600087803b15801561074357600080fd5b505af1158015610757573d6000803e3d6000fd5b50506040516001600160a01b03861692503391507f895ee30dc90af28d241649cd395c849101aaa615c472205924bfb75be84a7a2890600090a350505050505050505050505050565b3360009081526020819052604090205460ff1615156001146107fd5760405162461bcd60e51b8152602060048201526016602482015275165bdd48185c99481b9bdd08105d5d1a1bdc9a5e995960521b6044820152606401610262565b6001600160a01b038116600081815260208190526040808220805460ff19169055517f21f5f4b758c1729dd0fe17f11d3ec9cacc20503073cfe8e273d22f3b3d3a64b99190a250565b3360009081526020819052604090205460ff1615156001146108a35760405162461bcd60e51b8152602060048201526016602482015275165bdd48185c99481b9bdd08105d5d1a1bdc9a5e995960521b6044820152606401610262565b6001600160a01b038116600081815260208190526040808220805460ff19166001179055517f732428db6c47457e231fb7ba45e625ce9766b87aa9abd3922fac0e750b20923b9190a250565b600060208083528351808285015260005b8181101561091c57858101830151858201604001528201610900565b506000604082860101526040601f19601f8301168501019250505092915050565b80356001600160a01b038116811461095457600080fd5b919050565b60008083601f84011261096b57600080fd5b50813567ffffffffffffffff81111561098357600080fd5b60208301915083602082850101111561099b57600080fd5b9250929050565b6000806000806000608086880312156109ba57600080fd5b6109c38661093d565b94506109d16020870161093d565b935060408601359250606086013567ffffffffffffffff8111156109f457600080fd5b610a0088828901610959565b969995985093965092949392505050565b600060208284031215610a2357600080fd5b610a2c8261093d565b9392505050565b600080600080600080600080600080600060c08c8e031215610a5457600080fd5b67ffffffffffffffff808d351115610a6b57600080fd5b610a788e8e358f01610959565b909c509a5060208d0135811015610a8e57600080fd5b610a9e8e60208f01358f01610959565b909a50985060408d0135811015610ab457600080fd5b610ac48e60408f01358f01610959565b909850965060608d0135811015610ada57600080fd5b610aea8e60608f01358f01610959565b909650945060808d0135811015610b0057600080fd5b50610b118d60808e01358e01610959565b9093509150610b2260a08d0161093d565b90509295989b509295989b9093969950565b600181811c90821680610b4857607f821691505b602082108103610b81577f4e487b7100000000000000000000000000000000000000000000000000000000600052602260045260246000fd5b50919050565b600060208284031215610b9957600080fd5b81518015158114610a2c57600080fd5b85878237600086820160008152858782376000908601908152838582376000930192835250909695505050505050565b81835281816020850137506000828201602090810191909152601f909101601f19169091010190565b60a081526000610c1660a083018c8e610bd9565b8281036020840152610c29818b8d610bd9565b90508281036040840152610c3e81898b610bd9565b90508281036060840152610c53818789610bd9565b90508281036080840152610c68818587610bd9565b9d9c50505050505050505050505050565b600060208284031215610c8b57600080fd5b5051919050565b8481526001600160a01b0384166020820152606060408201526000610cbb606083018486610bd9565b969550505050505056fea2646970667358221220f560ccebacd9149e3c43b2bfd3b1adc6659742b3a9a41e26108d5c06c9c704be64736f6c63430008110033",
  "linkReferences": {},
  "deployedLinkReferences": {}
}